{
  "_format": "hh-sol-artifact-1",
  "contractName": "Idex",
  "sourceName": "contracts/Idex.sol",
  "abi": [
    {
      "inputs": [],
      "stateMutability": "nonpayable",
      "type": "constructor"
    },
    {
      "inputs": [],
      "name": "Unauthorized",
      "type": "error"
    },
    {
      "inputs": [],
      "name": "addtipamount",
      "type": "error"
    },
    {
      "inputs": [],
      "name": "cantipyourownpost",
      "type": "error"
    },
    {
      "inputs": [],
      "name": "invalidpost",
      "type": "error"
    },
    {
      "inputs": [],
      "name": "monitizationotenable",
      "type": "error"
    },
    {
      "inputs": [],
      "name": "mustownNft",
      "type": "error"
    },
    {
      "inputs": [],
      "name": "paymentfaild",
      "type": "error"
    },
    {
      "inputs": [],
      "name": "yocantfollowself",
      "type": "error"
    },
    {
      "inputs": [],
      "name": "youhavesupported",
      "type": "error"
    },
    {
      "inputs": [],
      "name": "youmonitezed",
      "type": "error"
    },
    {
      "anonymous": false,
      "inputs": [
        {
          "indexed": true,
          "internalType": "address",
          "name": "owner",
          "type": "address"
        },
        {
          "indexed": true,
          "internalType": "address",
          "name": "approved",
          "type": "address"
        },
        {
          "indexed": true,
          "internalType": "uint256",
          "name": "tokenId",
          "type": "uint256"
        }
      ],
      "name": "Approval",
      "type": "event"
    },
    {
      "anonymous": false,
      "inputs": [
        {
          "indexed": true,
          "internalType": "address",
          "name": "owner",
          "type": "address"
        },
        {
          "indexed": true,
          "internalType": "address",
          "name": "operator",
          "type": "address"
        },
        {
          "indexed": false,
          "internalType": "bool",
          "name": "approved",
          "type": "bool"
        }
      ],
      "name": "ApprovalForAll",
      "type": "event"
    },
    {
      "anonymous": false,
      "inputs": [
        {
          "indexed": false,
          "internalType": "uint256",
          "name": "id",
          "type": "uint256"
        },
        {
          "indexed": false,
          "internalType": "string",
          "name": "hash",
          "type": "string"
        },
        {
          "indexed": false,
          "internalType": "uint256",
          "name": "tipamount",
          "type": "uint256"
        },
        {
          "indexed": false,
          "internalType": "address payable",
          "name": "author",
          "type": "address"
        }
      ],
      "name": "PostTiped",
      "type": "event"
    },
    {
      "anonymous": false,
      "inputs": [
        {
          "indexed": true,
          "internalType": "address",
          "name": "from",
          "type": "address"
        },
        {
          "indexed": true,
          "internalType": "address",
          "name": "to",
          "type": "address"
        },
        {
          "indexed": true,
          "internalType": "uint256",
          "name": "tokenId",
          "type": "uint256"
        }
      ],
      "name": "Transfer",
      "type": "event"
    },
    {
      "anonymous": false,
      "inputs": [
        {
          "indexed": false,
          "internalType": "uint256",
          "name": "follower",
          "type": "uint256"
        },
        {
          "indexed": false,
          "internalType": "uint256",
          "name": "following",
          "type": "uint256"
        }
      ],
      "name": "followed",
      "type": "event"
    },
    {
      "anonymous": false,
      "inputs": [
        {
          "indexed": false,
          "internalType": "uint256",
          "name": "id",
          "type": "uint256"
        },
        {
          "indexed": false,
          "internalType": "string",
          "name": "hash",
          "type": "string"
        },
        {
          "indexed": false,
          "internalType": "uint256",
          "name": "tipamount",
          "type": "uint256"
        },
        {
          "indexed": false,
          "internalType": "address payable",
          "name": "author",
          "type": "address"
        },
        {
          "indexed": false,
          "internalType": "bool",
          "name": "monitization",
          "type": "bool"
        }
      ],
      "name": "postcreated",
      "type": "event"
    },
    {
      "inputs": [
        {
          "internalType": "uint256",
          "name": "",
          "type": "uint256"
        }
      ],
      "name": "PosTowner",
      "outputs": [
        {
          "internalType": "address",
          "name": "",
          "type": "address"
        }
      ],
      "stateMutability": "view",
      "type": "function"
    },
    {
      "inputs": [
        {
          "internalType": "uint256",
          "name": "",
          "type": "uint256"
        }
      ],
      "name": "Posts",
      "outputs": [
        {
          "internalType": "uint256",
          "name": "id",
          "type": "uint256"
        },
        {
          "internalType": "string",
          "name": "hash",
          "type": "string"
        },
        {
          "internalType": "uint256",
          "name": "tipamount",
          "type": "uint256"
        },
        {
          "internalType": "address payable",
          "name": "author",
          "type": "address"
        },
        {
          "internalType": "bool",
          "name": "monitization",
          "type": "bool"
        }
      ],
      "stateMutability": "view",
      "type": "function"
    },
    {
      "inputs": [
        {
          "internalType": "address",
          "name": "",
          "type": "address"
        }
      ],
      "name": "Profiled",
      "outputs": [
        {
          "internalType": "uint256",
          "name": "id",
          "type": "uint256"
        },
        {
          "internalType": "address payable",
          "name": "user",
          "type": "address"
        },
        {
          "internalType": "string",
          "name": "tokenURI",
          "type": "string"
        },
        {
          "internalType": "bool",
          "name": "monitization",
          "type": "bool"
        },
        {
          "internalType": "uint256",
          "name": "price",
          "type": "uint256"
        },
        {
          "internalType": "uint256",
          "name": "earning",
          "type": "uint256"
        },
        {
          "internalType": "uint256",
          "name": "idx",
          "type": "uint256"
        }
      ],
      "stateMutability": "view",
      "type": "function"
    },
    {
      "inputs": [
        {
          "internalType": "address",
          "name": "",
          "type": "address"
        }
      ],
      "name": "Profiles",
      "outputs": [
        {
          "internalType": "uint256",
          "name": "",
          "type": "uint256"
        }
      ],
      "stateMutability": "view",
      "type": "function"
    },
    {
      "inputs": [
        {
          "internalType": "uint256",
          "name": "",
          "type": "uint256"
        }
      ],
      "name": "SupportNftTowner",
      "outputs": [
        {
          "internalType": "address",
          "name": "",
          "type": "address"
        }
      ],
      "stateMutability": "view",
      "type": "function"
    },
    {
      "inputs": [
        {
          "internalType": "address",
          "name": "to",
          "type": "address"
        },
        {
          "internalType": "uint256",
          "name": "tokenId",
          "type": "uint256"
        }
      ],
      "name": "approve",
      "outputs": [],
      "stateMutability": "nonpayable",
      "type": "function"
    },
    {
      "inputs": [
        {
          "internalType": "address",
          "name": "owner",
          "type": "address"
        }
      ],
      "name": "balanceOf",
      "outputs": [
        {
          "internalType": "uint256",
          "name": "",
          "type": "uint256"
        }
      ],
      "stateMutability": "view",
      "type": "function"
    },
    {
      "inputs": [
        {
          "internalType": "string",
          "name": "_posthash",
          "type": "string"
        }
      ],
      "name": "craetepost",
      "outputs": [],
      "stateMutability": "nonpayable",
      "type": "function"
    },
    {
      "inputs": [
        {
          "internalType": "address",
          "name": "_followingid",
          "type": "address"
        },
        {
          "internalType": "address",
          "name": "_token",
          "type": "address"
        }
      ],
      "name": "follow",
      "outputs": [],
      "stateMutability": "payable",
      "type": "function"
    },
    {
      "inputs": [],
      "name": "getAllPosts",
      "outputs": [
        {
          "components": [
            {
              "internalType": "uint256",
              "name": "id",
              "type": "uint256"
            },
            {
              "internalType": "string",
              "name": "hash",
              "type": "string"
            },
            {
              "internalType": "uint256",
              "name": "tipamount",
              "type": "uint256"
            },
            {
              "internalType": "address payable",
              "name": "author",
              "type": "address"
            },
            {
              "internalType": "bool",
              "name": "monitization",
              "type": "bool"
            }
          ],
          "internalType": "struct Idex.Post[]",
          "name": "_posts",
          "type": "tuple[]"
        }
      ],
      "stateMutability": "view",
      "type": "function"
    },
    {
      "inputs": [
        {
          "internalType": "uint256",
          "name": "tokenId",
          "type": "uint256"
        }
      ],
      "name": "getApproved",
      "outputs": [
        {
          "internalType": "address",
          "name": "",
          "type": "address"
        }
      ],
      "stateMutability": "view",
      "type": "function"
    },
    {
      "inputs": [
        {
          "internalType": "address",
          "name": "_add",
          "type": "address"
        }
      ],
      "name": "getMyNfts",
      "outputs": [
        {
          "internalType": "uint256[]",
          "name": "_ids",
          "type": "uint256[]"
        }
      ],
      "stateMutability": "view",
      "type": "function"
    },
    {
      "inputs": [],
      "name": "getMypost",
      "outputs": [
        {
          "components": [
            {
              "internalType": "uint256",
              "name": "id",
              "type": "uint256"
            },
            {
              "internalType": "string",
              "name": "hash",
              "type": "string"
            },
            {
              "internalType": "uint256",
              "name": "tipamount",
              "type": "uint256"
            },
            {
              "internalType": "address payable",
              "name": "author",
              "type": "address"
            },
            {
              "internalType": "bool",
              "name": "monitization",
              "type": "bool"
            }
          ],
          "internalType": "struct Idex.Post[]",
          "name": "",
          "type": "tuple[]"
        }
      ],
      "stateMutability": "view",
      "type": "function"
    },
    {
      "inputs": [
        {
          "internalType": "uint256",
          "name": "_idx",
          "type": "uint256"
        }
      ],
      "name": "getconva",
      "outputs": [
        {
          "internalType": "uint256",
          "name": "",
          "type": "uint256"
        }
      ],
      "stateMutability": "view",
      "type": "function"
    },
    {
      "inputs": [
        {
          "internalType": "address",
          "name": "_profile",
          "type": "address"
        }
      ],
      "name": "getfollwerCount",
      "outputs": [
        {
          "internalType": "uint256",
          "name": "count",
          "type": "uint256"
        }
      ],
      "stateMutability": "view",
      "type": "function"
    },
    {
      "inputs": [],
      "name": "getsupportnft",
      "outputs": [
        {
          "internalType": "string",
          "name": "nft",
          "type": "string"
        }
      ],
      "stateMutability": "view",
      "type": "function"
    },
    {
      "inputs": [
        {
          "internalType": "address",
          "name": "owner",
          "type": "address"
        },
        {
          "internalType": "address",
          "name": "operator",
          "type": "address"
        }
      ],
      "name": "isApprovedForAll",
      "outputs": [
        {
          "internalType": "bool",
          "name": "",
          "type": "bool"
        }
      ],
      "stateMutability": "view",
      "type": "function"
    },
    {
      "inputs": [
        {
          "internalType": "address",
          "name": "_following",
          "type": "address"
        }
      ],
      "name": "isfollowed",
      "outputs": [
        {
          "internalType": "bool",
          "name": "",
          "type": "bool"
        }
      ],
      "stateMutability": "view",
      "type": "function"
    },
    {
      "inputs": [
        {
          "internalType": "address",
          "name": "_profile",
          "type": "address"
        }
      ],
      "name": "ismontizeprofile",
      "outputs": [
        {
          "internalType": "bool",
          "name": "",
          "type": "bool"
        }
      ],
      "stateMutability": "view",
      "type": "function"
    },
    {
      "inputs": [
        {
          "internalType": "uint256",
          "name": "_id",
          "type": "uint256"
        }
      ],
      "name": "ispostmonitiz",
      "outputs": [
        {
          "internalType": "bool",
          "name": "",
          "type": "bool"
        }
      ],
      "stateMutability": "view",
      "type": "function"
    },
    {
      "inputs": [
        {
          "internalType": "string",
          "name": "_tokenURI",
          "type": "string"
        }
      ],
      "name": "mint",
      "outputs": [
        {
          "internalType": "uint256",
          "name": "",
          "type": "uint256"
        }
      ],
      "stateMutability": "nonpayable",
      "type": "function"
    },
    {
      "inputs": [
        {
          "internalType": "uint256",
          "name": "_id",
          "type": "uint256"
        }
      ],
      "name": "monitizepost",
      "outputs": [],
      "stateMutability": "nonpayable",
      "type": "function"
    },
    {
      "inputs": [
        {
          "internalType": "uint256",
          "name": "_price",
          "type": "uint256"
        },
        {
          "internalType": "string",
          "name": "_TorkenUri",
          "type": "string"
        }
      ],
      "name": "monitizeprofile",
      "outputs": [],
      "stateMutability": "nonpayable",
      "type": "function"
    },
    {
      "inputs": [],
      "name": "name",
      "outputs": [
        {
          "internalType": "string",
          "name": "",
          "type": "string"
        }
      ],
      "stateMutability": "view",
      "type": "function"
    },
    {
      "inputs": [
        {
          "internalType": "uint256",
          "name": "tokenId",
          "type": "uint256"
        }
      ],
      "name": "ownerOf",
      "outputs": [
        {
          "internalType": "address",
          "name": "",
          "type": "address"
        }
      ],
      "stateMutability": "view",
      "type": "function"
    },
    {
      "inputs": [
        {
          "internalType": "address",
          "name": "from",
          "type": "address"
        },
        {
          "internalType": "address",
          "name": "to",
          "type": "address"
        },
        {
          "internalType": "uint256",
          "name": "tokenId",
          "type": "uint256"
        }
      ],
      "name": "safeTransferFrom",
      "outputs": [],
      "stateMutability": "nonpayable",
      "type": "function"
    },
    {
      "inputs": [
        {
          "internalType": "address",
          "name": "from",
          "type": "address"
        },
        {
          "internalType": "address",
          "name": "to",
          "type": "address"
        },
        {
          "internalType": "uint256",
          "name": "tokenId",
          "type": "uint256"
        },
        {
          "internalType": "bytes",
          "name": "data",
          "type": "bytes"
        }
      ],
      "name": "safeTransferFrom",
      "outputs": [],
      "stateMutability": "nonpayable",
      "type": "function"
    },
    {
      "inputs": [
        {
          "internalType": "address",
          "name": "operator",
          "type": "address"
        },
        {
          "internalType": "bool",
          "name": "approved",
          "type": "bool"
        }
      ],
      "name": "setApprovalForAll",
      "outputs": [],
      "stateMutability": "nonpayable",
      "type": "function"
    },
    {
      "inputs": [
        {
          "internalType": "uint256",
          "name": "_id",
          "type": "uint256"
        }
      ],
      "name": "setprofile",
      "outputs": [],
      "stateMutability": "nonpayable",
      "type": "function"
    },
    {
      "inputs": [
        {
          "internalType": "bytes4",
          "name": "interfaceId",
          "type": "bytes4"
        }
      ],
      "name": "supportsInterface",
      "outputs": [
        {
          "internalType": "bool",
          "name": "",
          "type": "bool"
        }
      ],
      "stateMutability": "view",
      "type": "function"
    },
    {
      "inputs": [],
      "name": "symbol",
      "outputs": [
        {
          "internalType": "string",
          "name": "",
          "type": "string"
        }
      ],
      "stateMutability": "view",
      "type": "function"
    },
    {
      "inputs": [
        {
          "internalType": "uint256",
          "name": "_id",
          "type": "uint256"
        },
        {
          "internalType": "address",
          "name": "_token",
          "type": "address"
        }
      ],
      "name": "tipownerpost",
      "outputs": [],
      "stateMutability": "payable",
      "type": "function"
    },
    {
      "inputs": [
        {
          "internalType": "uint256",
          "name": "tokenId",
          "type": "uint256"
        }
      ],
      "name": "tokenURI",
      "outputs": [
        {
          "internalType": "string",
          "name": "",
          "type": "string"
        }
      ],
      "stateMutability": "view",
      "type": "function"
    },
    {
      "inputs": [
        {
          "internalType": "address",
          "name": "from",
          "type": "address"
        },
        {
          "internalType": "address",
          "name": "to",
          "type": "address"
        },
        {
          "internalType": "uint256",
          "name": "tokenId",
          "type": "uint256"
        }
      ],
      "name": "transferFrom",
      "outputs": [],
      "stateMutability": "nonpayable",
      "type": "function"
    }
  ],
  "bytecode": "0x60806040523480156200001157600080fd5b506040518060400160405280600481526020017f49444558000000000000000000000000000000000000000000000000000000008152506040518060400160405280600381526020017f4465780000000000000000000000000000000000000000000000000000000000815250816000908051906020019062000096929190620000b8565b508060019080519060200190620000af929190620000b8565b505050620001cd565b828054620000c69062000197565b90600052602060002090601f016020900481019282620000ea576000855562000136565b82601f106200010557805160ff191683800117855562000136565b8280016001018555821562000136579182015b828111156200013557825182559160200191906001019062000118565b5b50905062000145919062000149565b5090565b5b80821115620001645760008160009055506001016200014a565b5090565b7f4e487b7100000000000000000000000000000000000000000000000000000000600052602260045260246000fd5b60006002820490506001821680620001b057607f821691505b60208210811415620001c757620001c662000168565b5b50919050565b615cc880620001dd6000396000f3fe6080604052600436106101f95760003560e01c806395d89b411161010d578063cbfc291f116100a0578063e985e9c51161006f578063e985e9c5146107d6578063f6c1b77a14610813578063fa91d11c14610850578063faf60e3614610879578063fbb8d642146108b6576101f9565b8063cbfc291f146106f6578063d85d3d271461071f578063da3d401a1461075c578063dfc48a3f14610799576101f9565b8063b88d4fde116100dc578063b88d4fde1461063a578063c3d8743b14610663578063c493f2921461068e578063c87b56dd146106b9576101f9565b806395d89b411461058d57806399d147c2146105b85780639b9e2afe146105d4578063a22cb46514610611576101f9565b8063266d042b116101905780634fafef1a1161015f5780634fafef1a1461046c57806361772519146104ad5780636352211e146104ea57806364e1eecc1461052757806370a0823114610550576101f9565b8063266d042b1461039857806330561100146103db57806342842e0e1461040657806345ffb23c1461042f576101f9565b8063095ea7b3116101cc578063095ea7b3146102e057806311be5a0b1461030957806320ef17921461033257806323b872dd1461036f576101f9565b806301ffc9a7146101fe5780630641f02c1461023b57806306fdde0314610278578063081812fc146102a3575b600080fd5b34801561020a57600080fd5b5061022560048036038101906102209190614433565b6108d2565b604051610232919061447b565b60405180910390f35b34801561024757600080fd5b50610262600480360381019061025d91906144cc565b6109b4565b60405161026f9190614508565b60405180910390f35b34801561028457600080fd5b5061028d6109e7565b60405161029a91906145bc565b60405180910390f35b3480156102af57600080fd5b506102ca60048036038101906102c591906144cc565b610a79565b6040516102d7919061461f565b60405180910390f35b3480156102ec57600080fd5b5061030760048036038101906103029190614666565b610abf565b005b34801561031557600080fd5b50610330600480360381019061032b91906147db565b610bd7565b005b34801561033e57600080fd5b50610359600480360381019061035491906144cc565b610f09565b604051610366919061461f565b60405180910390f35b34801561037b57600080fd5b5061039660048036038101906103919190614824565b610f3c565b005b3480156103a457600080fd5b506103bf60048036038101906103ba9190614877565b610f9c565b6040516103d297969594939291906148c5565b60405180910390f35b3480156103e757600080fd5b506103f0611093565b6040516103fd9190614aea565b60405180910390f35b34801561041257600080fd5b5061042d60048036038101906104289190614824565b61126f565b005b34801561043b57600080fd5b5061045660048036038101906104519190614877565b61128f565b6040516104639190614508565b60405180910390f35b34801561047857600080fd5b50610493600480360381019061048e91906144cc565b6112a7565b6040516104a4959493929190614b0c565b60405180910390f35b3480156104b957600080fd5b506104d460048036038101906104cf9190614877565b611392565b6040516104e1919061447b565b60405180910390f35b3480156104f657600080fd5b50610511600480360381019061050c91906144cc565b611409565b60405161051e919061461f565b60405180910390f35b34801561053357600080fd5b5061054e600480360381019061054991906144cc565b611490565b005b34801561055c57600080fd5b5061057760048036038101906105729190614877565b61154d565b6040516105849190614508565b60405180910390f35b34801561059957600080fd5b506105a2611605565b6040516105af91906145bc565b60405180910390f35b6105d260048036038101906105cd9190614b66565b611697565b005b3480156105e057600080fd5b506105fb60048036038101906105f691906144cc565b611f6d565b604051610608919061461f565b60405180910390f35b34801561061d57600080fd5b5061063860048036038101906106339190614bd2565b611fa0565b005b34801561064657600080fd5b50610661600480360381019061065c9190614cb3565b611fb6565b005b34801561066f57600080fd5b50610678612018565b60405161068591906145bc565b60405180910390f35b34801561069a57600080fd5b506106a36120f0565b6040516106b09190614aea565b60405180910390f35b3480156106c557600080fd5b506106e060048036038101906106db91906144cc565b612411565b6040516106ed91906145bc565b60405180910390f35b34801561070257600080fd5b5061071d600480360381019061071891906144cc565b612524565b005b34801561072b57600080fd5b50610746600480360381019061074191906147db565b61255c565b6040516107539190614508565b60405180910390f35b34801561076857600080fd5b50610783600480360381019061077e9190614877565b612635565b604051610790919061447b565b60405180910390f35b3480156107a557600080fd5b506107c060048036038101906107bb9190614877565b612726565b6040516107cd9190614508565b60405180910390f35b3480156107e257600080fd5b506107fd60048036038101906107f89190614b66565b61277a565b60405161080a919061447b565b60405180910390f35b34801561081f57600080fd5b5061083a60048036038101906108359190614877565b61280e565b6040516108479190614de5565b60405180910390f35b34801561085c57600080fd5b5061087760048036038101906108729190614e07565b612914565b005b34801561088557600080fd5b506108a0600480360381019061089b91906144cc565b612bc0565b6040516108ad919061447b565b60405180910390f35b6108d060048036038101906108cb9190614e63565b612c0b565b005b60007f80ac58cd000000000000000000000000000000000000000000000000000000007bffffffffffffffffffffffffffffffffffffffffffffffffffffffff1916827bffffffffffffffffffffffffffffffffffffffffffffffffffffffff1916148061099d57507f5b5e139f000000000000000000000000000000000000000000000000000000007bffffffffffffffffffffffffffffffffffffffffffffffffffffffff1916827bffffffffffffffffffffffffffffffffffffffffffffffffffffffff1916145b806109ad57506109ac82613125565b5b9050919050565b6000806000600960008581526020019081526020016000209050806002015491506109de8261318f565b92505050919050565b6060600080546109f690614ed2565b80601f0160208091040260200160405190810160405280929190818152602001828054610a2290614ed2565b8015610a6f5780601f10610a4457610100808354040283529160200191610a6f565b820191906000526020600020905b815481529060010190602001808311610a5257829003601f168201915b5050505050905090565b6000610a84826131c9565b6004600083815260200190815260200160002060009054906101000a900473ffffffffffffffffffffffffffffffffffffffff169050919050565b6000610aca82611409565b90508073ffffffffffffffffffffffffffffffffffffffff168373ffffffffffffffffffffffffffffffffffffffff161415610b3b576040517f08c379a0000000000000000000000000000000000000000000000000000000008152600401610b3290614f76565b60405180910390fd5b8073ffffffffffffffffffffffffffffffffffffffff16610b5a613214565b73ffffffffffffffffffffffffffffffffffffffff161480610b895750610b8881610b83613214565b61277a565b5b610bc8576040517f08c379a0000000000000000000000000000000000000000000000000000000008152600401610bbf90615008565b60405180910390fd5b610bd2838361321c565b505050565b6001610be23361154d565b1015610c1a576040517fe0149f6400000000000000000000000000000000000000000000000000000000815260040160405180910390fd5b600181511015610c56576040517fe0149f6400000000000000000000000000000000000000000000000000000000815260040160405180910390fd5b60086000815480929190610c6990615057565b919050555060006040518060a001604052806008548152602001838152602001600081526020013373ffffffffffffffffffffffffffffffffffffffff1681526020016000151581525090506040518060a001604052806008548152602001838152602001600081526020013373ffffffffffffffffffffffffffffffffffffffff16815260200160001515815250600960006008548152602001908152602001600020600082015181600001556020820151816001019080519060200190610d339291906141fe565b506040820151816002015560608201518160030160006101000a81548173ffffffffffffffffffffffffffffffffffffffff021916908373ffffffffffffffffffffffffffffffffffffffff16021790555060808201518160030160146101000a81548160ff021916908315150217905550905050600e819080600181540180825580915050600190039060005260206000209060040201600090919091909150600082015181600001556020820151816001019080519060200190610dfa9291906141fe565b506040820151816002015560608201518160030160006101000a81548173ffffffffffffffffffffffffffffffffffffffff021916908373ffffffffffffffffffffffffffffffffffffffff16021790555060808201518160030160146101000a81548160ff021916908315150217905550505033600c6000600854815260200190815260200160002060006101000a81548173ffffffffffffffffffffffffffffffffffffffff021916908373ffffffffffffffffffffffffffffffffffffffff1602179055507fa069f13470b7d7b9458b0ab6c598e9f53c23db1a88c33157a1af53c63ca1a2e0600854836000336000604051610efd9594939291906150e5565b60405180910390a15050565b600c6020528060005260406000206000915054906101000a900473ffffffffffffffffffffffffffffffffffffffff1681565b610f4d610f47613214565b826132d5565b610f8c576040517f08c379a0000000000000000000000000000000000000000000000000000000008152600401610f83906151b1565b60405180910390fd5b610f9783838361336a565b505050565b600b6020528060005260406000206000915090508060000154908060010160009054906101000a900473ffffffffffffffffffffffffffffffffffffffff1690806004018054610feb90614ed2565b80601f016020809104026020016040519081016040528092919081815260200182805461101790614ed2565b80156110645780601f1061103957610100808354040283529160200191611064565b820191906000526020600020905b81548152906001019060200180831161104757829003601f168201915b5050505050908060050160009054906101000a900460ff16908060060154908060070154908060080154905087565b606060085467ffffffffffffffff8111156110b1576110b06146b0565b5b6040519080825280602002602001820160405280156110ea57816020015b6110d7614284565b8152602001906001900390816110cf5790505b50905060005b815181101561126b576009600060018361110a91906151d1565b81526020019081526020016000206040518060a00160405290816000820154815260200160018201805461113d90614ed2565b80601f016020809104026020016040519081016040528092919081815260200182805461116990614ed2565b80156111b65780601f1061118b576101008083540402835291602001916111b6565b820191906000526020600020905b81548152906001019060200180831161119957829003601f168201915b50505050508152602001600282015481526020016003820160009054906101000a900473ffffffffffffffffffffffffffffffffffffffff1673ffffffffffffffffffffffffffffffffffffffff1673ffffffffffffffffffffffffffffffffffffffff1681526020016003820160149054906101000a900460ff16151515158152505082828151811061124d5761124c615227565b5b6020026020010181905250808061126390615057565b9150506110f0565b5090565b61128a83838360405180602001604052806000815250611fb6565b505050565b600a6020528060005260406000206000915090505481565b60096020528060005260406000206000915090508060000154908060010180546112d090614ed2565b80601f01602080910402602001604051908101604052809291908181526020018280546112fc90614ed2565b80156113495780601f1061131e57610100808354040283529160200191611349565b820191906000526020600020905b81548152906001019060200180831161132c57829003601f168201915b5050505050908060020154908060030160009054906101000a900473ffffffffffffffffffffffffffffffffffffffff16908060030160149054906101000a900460ff16905085565b600080600b60008473ffffffffffffffffffffffffffffffffffffffff1673ffffffffffffffffffffffffffffffffffffffff1681526020019081526020016000209050600115158160050160009054906101000a900460ff16151514156113fe576001915050611404565b60009150505b919050565b60008061141583613664565b9050600073ffffffffffffffffffffffffffffffffffffffff168173ffffffffffffffffffffffffffffffffffffffff161415611487576040517f08c379a000000000000000000000000000000000000000000000000000000000815260040161147e906152a2565b60405180910390fd5b80915050919050565b3373ffffffffffffffffffffffffffffffffffffffff166114b082611409565b73ffffffffffffffffffffffffffffffffffffffff1614611506576040517f08c379a00000000000000000000000000000000000000000000000000000000081526004016114fd9061530e565b60405180910390fd5b80600a60003373ffffffffffffffffffffffffffffffffffffffff1673ffffffffffffffffffffffffffffffffffffffff1681526020019081526020016000208190555050565b60008073ffffffffffffffffffffffffffffffffffffffff168273ffffffffffffffffffffffffffffffffffffffff1614156115be576040517f08c379a00000000000000000000000000000000000000000000000000000000081526004016115b5906153a0565b60405180910390fd5b600360008373ffffffffffffffffffffffffffffffffffffffff1673ffffffffffffffffffffffffffffffffffffffff168152602001908152602001600020549050919050565b60606001805461161490614ed2565b80601f016020809104026020016040519081016040528092919081815260200182805461164090614ed2565b801561168d5780601f106116625761010080835404028352916020019161168d565b820191906000526020600020905b81548152906001019060200180831161167057829003601f168201915b5050505050905090565b6000600b60008473ffffffffffffffffffffffffffffffffffffffff1673ffffffffffffffffffffffffffffffffffffffff16815260200190815260200160002090506000600b60003373ffffffffffffffffffffffffffffffffffffffff1673ffffffffffffffffffffffffffffffffffffffff168152602001908152602001600020905060006305f5e100836006015461173391906153c0565b9050600061174086612635565b9050600061174d87611392565b90508673ffffffffffffffffffffffffffffffffffffffff163373ffffffffffffffffffffffffffffffffffffffff1614156117b5576040517f2057bbc900000000000000000000000000000000000000000000000000000000815260040160405180910390fd5b6001151582151514156117f4576040517f98575ed400000000000000000000000000000000000000000000000000000000815260040160405180910390fd5b600115158115151415611db8578261180b3461318f565b1015611843576040517faa6e6a6900000000000000000000000000000000000000000000000000000000815260040160405180910390fd5b60008773ffffffffffffffffffffffffffffffffffffffff16346040516118699061544b565b60006040518083038185875af1925050503d80600081146118a6576040519150601f19603f3d011682016040523d82523d6000602084013e6118ab565b606091505b50509050806118e6576040517faa6e6a6900000000000000000000000000000000000000000000000000000000815260040160405180910390fd5b600760008154809291906118f990615057565b9190505550856002018560000154908060018154018082558091505060019003906000526020600020016000909190919091505584600301866000015490806001815401808255809150506001900390600052602060002001600090919091909150553486600701600082825461197091906151d1565b9250508190555085600b60008a73ffffffffffffffffffffffffffffffffffffffff1673ffffffffffffffffffffffffffffffffffffffff168152602001908152602001600020600082015481600001556001820160009054906101000a900473ffffffffffffffffffffffffffffffffffffffff168160010160006101000a81548173ffffffffffffffffffffffffffffffffffffffff021916908373ffffffffffffffffffffffffffffffffffffffff1602179055506002820181600201908054611a3e9291906142cb565b506003820181600301908054611a559291906142cb565b506004820181600401908054611a6a90614ed2565b611a7592919061431d565b506005820160009054906101000a900460ff168160050160006101000a81548160ff021916908315150217905550600682015481600601556007820154816007015560088201548160080155905050611ad0336007546136a1565b611b68600754876004018054611ae590614ed2565b80601f0160208091040260200160405190810160405280929190818152602001828054611b1190614ed2565b8015611b5e5780601f10611b3357610100808354040283529160200191611b5e565b820191906000526020600020905b815481529060010190602001808311611b4157829003601f168201915b50505050506136bf565b60008790508073ffffffffffffffffffffffffffffffffffffffff166340c10f1933670de0b6b3a76400006040518363ffffffff1660e01b8152600401611bb092919061549b565b600060405180830381600087803b158015611bca57600080fd5b505af1158015611bde573d6000803e3d6000fd5b5050505084866008016000828254611bf691906151d1565b92505081905550600060405180606001604052806007548152602001896004018054611c2190614ed2565b80601f0160208091040260200160405190810160405280929190818152602001828054611c4d90614ed2565b8015611c9a5780601f10611c6f57610100808354040283529160200191611c9a565b820191906000526020600020905b815481529060010190602001808311611c7d57829003601f168201915b505050505081526020013373ffffffffffffffffffffffffffffffffffffffff168152509050600f819080600181540180825580915050600190039060005260206000209060030201600090919091909150600082015181600001556020820151816001019080519060200190611d129291906141fe565b5060408201518160020160006101000a81548173ffffffffffffffffffffffffffffffffffffffff021916908373ffffffffffffffffffffffffffffffffffffffff160217905550505033600d6000600754815260200190815260200160002060006101000a81548173ffffffffffffffffffffffffffffffffffffffff021916908373ffffffffffffffffffffffffffffffffffffffff160217905550505050611f64565b8460020184600001549080600181540180825580915050600190039060005260206000200160009091909190915055836003018560000154908060018154018082558091505060019003906000526020600020016000909190919091505584600b60008973ffffffffffffffffffffffffffffffffffffffff1673ffffffffffffffffffffffffffffffffffffffff168152602001908152602001600020600082015481600001556001820160009054906101000a900473ffffffffffffffffffffffffffffffffffffffff168160010160006101000a81548173ffffffffffffffffffffffffffffffffffffffff021916908373ffffffffffffffffffffffffffffffffffffffff1602179055506002820181600201908054611edd9291906142cb565b506003820181600301908054611ef49291906142cb565b506004820181600401908054611f0990614ed2565b611f1492919061431d565b506005820160009054906101000a900460ff168160050160006101000a81548160ff0219169083151502179055506006820154816006015560078201548160070155600882015481600801559050505b50505050505050565b600d6020528060005260406000206000915054906101000a900473ffffffffffffffffffffffffffffffffffffffff1681565b611fb2611fab613214565b8383613733565b5050565b611fc7611fc1613214565b836132d5565b612006576040517f08c379a0000000000000000000000000000000000000000000000000000000008152600401611ffd906151b1565b60405180910390fd5b612012848484846138a0565b50505050565b60606000600b60003373ffffffffffffffffffffffffffffffffffffffff1673ffffffffffffffffffffffffffffffffffffffff168152602001908152602001600020905080600401805461206c90614ed2565b80601f016020809104026020016040519081016040528092919081815260200182805461209890614ed2565b80156120e55780601f106120ba576101008083540402835291602001916120e5565b820191906000526020600020905b8154815290600101906020018083116120c857829003601f168201915b505050505091505090565b60606000600e8054905067ffffffffffffffff811115612113576121126146b0565b5b60405190808252806020026020018201604052801561214c57816020015b612139614284565b8152602001906001900390816121315790505b5090506000805b600e80549050811015612357573373ffffffffffffffffffffffffffffffffffffffff16600c600060018461218891906151d1565b815260200190815260200160002060009054906101000a900473ffffffffffffffffffffffffffffffffffffffff1673ffffffffffffffffffffffffffffffffffffffff16141561234457600e81815481106121e7576121e6615227565b5b90600052602060002090600402016040518060a00160405290816000820154815260200160018201805461221a90614ed2565b80601f016020809104026020016040519081016040528092919081815260200182805461224690614ed2565b80156122935780601f1061226857610100808354040283529160200191612293565b820191906000526020600020905b81548152906001019060200180831161227657829003601f168201915b50505050508152602001600282015481526020016003820160009054906101000a900473ffffffffffffffffffffffffffffffffffffffff1673ffffffffffffffffffffffffffffffffffffffff1673ffffffffffffffffffffffffffffffffffffffff1681526020016003820160149054906101000a900460ff16151515158152505083838151811061232a57612329615227565b5b6020026020010181905250818061234090615057565b9250505b808061234f90615057565b915050612153565b5060008167ffffffffffffffff811115612374576123736146b0565b5b6040519080825280602002602001820160405280156123ad57816020015b61239a614284565b8152602001906001900390816123925790505b50905060005b82811015612407578381815181106123ce576123cd615227565b5b60200260200101518282815181106123e9576123e8615227565b5b602002602001018190525080806123ff90615057565b9150506123b3565b5080935050505090565b606061241c826131c9565b600060066000848152602001908152602001600020805461243c90614ed2565b80601f016020809104026020016040519081016040528092919081815260200182805461246890614ed2565b80156124b55780601f1061248a576101008083540402835291602001916124b5565b820191906000526020600020905b81548152906001019060200180831161249857829003601f168201915b5050505050905060006124c66138fc565b90506000815114156124dc57819250505061251f565b6000825111156125115780826040516020016124f9929190615500565b6040516020818303038152906040529250505061251f565b61251a84613913565b925050505b919050565b600060096000838152602001908152602001600020905060018160030160146101000a81548160ff0219169083151502179055505050565b60006007600081548092919061257190615057565b9190505550612582336007546136a1565b61258e600754836136bf565b6000600b60003373ffffffffffffffffffffffffffffffffffffffff1673ffffffffffffffffffffffffffffffffffffffff16815260200190815260200160002090506007548160000181905550338160010160006101000a81548173ffffffffffffffffffffffffffffffffffffffff021916908373ffffffffffffffffffffffffffffffffffffffff16021790555061262a600754611490565b600754915050919050565b600080600b60008473ffffffffffffffffffffffffffffffffffffffff1673ffffffffffffffffffffffffffffffffffffffff16815260200190815260200160002090506000600b60003373ffffffffffffffffffffffffffffffffffffffff1673ffffffffffffffffffffffffffffffffffffffff168152602001908152602001600020905060005b82600201805490508110156127195781600001548360020182815481106126e9576126e8615227565b5b906000526020600020015414156127065760019350505050612721565b808061271190615057565b9150506126bf565b506000925050505b919050565b600080600b60008473ffffffffffffffffffffffffffffffffffffffff1673ffffffffffffffffffffffffffffffffffffffff16815260200190815260200160002090508060020180549050915050919050565b6000600560008473ffffffffffffffffffffffffffffffffffffffff1673ffffffffffffffffffffffffffffffffffffffff16815260200190815260200160002060008373ffffffffffffffffffffffffffffffffffffffff1673ffffffffffffffffffffffffffffffffffffffff16815260200190815260200160002060009054906101000a900460ff16905092915050565b60606128198261154d565b67ffffffffffffffff811115612832576128316146b0565b5b6040519080825280602002602001820160405280156128605781602001602082028036833780820191505090505b509050600080600754905060005b8181101561290c578473ffffffffffffffffffffffffffffffffffffffff166128a260018361289d91906151d1565b611409565b73ffffffffffffffffffffffffffffffffffffffff1614156128f9576001816128cb91906151d1565b8484815181106128de576128dd615227565b5b60200260200101818152505082806128f590615057565b9350505b808061290490615057565b91505061286e565b505050919050565b6000600b60003373ffffffffffffffffffffffffffffffffffffffff1673ffffffffffffffffffffffffffffffffffffffff1681526020019081526020016000209050600015158160050160009054906101000a900460ff161515146129a6576040517f2b7a0fe900000000000000000000000000000000000000000000000000000000815260040160405180910390fd5b3373ffffffffffffffffffffffffffffffffffffffff168160010160009054906101000a900473ffffffffffffffffffffffffffffffffffffffff1673ffffffffffffffffffffffffffffffffffffffff1614612a2f576040517f82b4290000000000000000000000000000000000000000000000000000000000815260040160405180910390fd5b60018160050160006101000a81548160ff02191690831515021790555082816006018190555081816004019080519060200190612a6d9291906141fe565b5080600b60003373ffffffffffffffffffffffffffffffffffffffff1673ffffffffffffffffffffffffffffffffffffffff168152602001908152602001600020600082015481600001556001820160009054906101000a900473ffffffffffffffffffffffffffffffffffffffff168160010160006101000a81548173ffffffffffffffffffffffffffffffffffffffff021916908373ffffffffffffffffffffffffffffffffffffffff1602179055506002820181600201908054612b359291906142cb565b506003820181600301908054612b4c9291906142cb565b506004820181600401908054612b6190614ed2565b612b6c92919061431d565b506005820160009054906101000a900460ff168160050160006101000a81548160ff021916908315150217905550600682015481600601556007820154816007015560088201548160080155905050505050565b600080600960008481526020019081526020016000209050600115158160030160149054906101000a900460ff1615151415612c00576001915050612c06565b60009150505b919050565b600082108015612c1d57506008548211155b15612c54576040517f8b61fdab00000000000000000000000000000000000000000000000000000000815260040160405180910390fd5b6000612c5f83612bc0565b90506001151581151514612c9f576040517f50cbb21500000000000000000000000000000000000000000000000000000000815260040160405180910390fd5b8015613120576000600960008581526020019081526020016000206040518060a001604052908160008201548152602001600182018054612cdf90614ed2565b80601f0160208091040260200160405190810160405280929190818152602001828054612d0b90614ed2565b8015612d585780601f10612d2d57610100808354040283529160200191612d58565b820191906000526020600020905b815481529060010190602001808311612d3b57829003601f168201915b50505050508152602001600282015481526020016003820160009054906101000a900473ffffffffffffffffffffffffffffffffffffffff1673ffffffffffffffffffffffffffffffffffffffff1673ffffffffffffffffffffffffffffffffffffffff1681526020016003820160149054906101000a900460ff16151515158152505090503373ffffffffffffffffffffffffffffffffffffffff16816060015173ffffffffffffffffffffffffffffffffffffffff161415612e48576040517f76999ef300000000000000000000000000000000000000000000000000000000815260040160405180910390fd5b6000341015612e83576040517f26a81e1a00000000000000000000000000000000000000000000000000000000815260040160405180910390fd5b6000816060015173ffffffffffffffffffffffffffffffffffffffff1634604051612ead9061544b565b60006040518083038185875af1925050503d8060008114612eea576040519150601f19603f3d011682016040523d82523d6000602084013e612eef565b606091505b505090506001151581151514612f31576040517faa6e6a6900000000000000000000000000000000000000000000000000000000815260040160405180910390fd5b3482604001818151612f4391906151d1565b915081815250508160096000878152602001908152602001600020600082015181600001556020820151816001019080519060200190612f849291906141fe565b506040820151816002015560608201518160030160006101000a81548173ffffffffffffffffffffffffffffffffffffffff021916908373ffffffffffffffffffffffffffffffffffffffff16021790555060808201518160030160146101000a81548160ff02191690831515021790555090505060008490508073ffffffffffffffffffffffffffffffffffffffff166340c10f1933670de0b6b3a76400006040518363ffffffff1660e01b815260040161304192919061549b565b600060405180830381600087803b15801561305b57600080fd5b505af115801561306f573d6000803e3d6000fd5b505050506000600b60003373ffffffffffffffffffffffffffffffffffffffff1673ffffffffffffffffffffffffffffffffffffffff168152602001908152602001600020905060018160080160008282546130cb91906151d1565b925050819055507f7fcfa126b080b9cd43e8eb0f3d8fc2459d3250191cc02456ef510543393cef35878560200151866040015187606001516040516131139493929190615524565b60405180910390a1505050505b505050565b60007f01ffc9a7000000000000000000000000000000000000000000000000000000007bffffffffffffffffffffffffffffffffffffffffffffffffffffffff1916827bffffffffffffffffffffffffffffffffffffffffffffffffffffffff1916149050919050565b60008061319a61397b565b90506000670de0b6b3a764000084836131b391906153c0565b6131bd919061559f565b90508092505050919050565b6131d281613a33565b613211576040517f08c379a0000000000000000000000000000000000000000000000000000000008152600401613208906152a2565b60405180910390fd5b50565b600033905090565b816004600083815260200190815260200160002060006101000a81548173ffffffffffffffffffffffffffffffffffffffff021916908373ffffffffffffffffffffffffffffffffffffffff160217905550808273ffffffffffffffffffffffffffffffffffffffff1661328f83611409565b73ffffffffffffffffffffffffffffffffffffffff167f8c5be1e5ebec7d5bd14f71427d1e84f3dd0314c0f7b2291e5b200ac8c7c3b92560405160405180910390a45050565b6000806132e183611409565b90508073ffffffffffffffffffffffffffffffffffffffff168473ffffffffffffffffffffffffffffffffffffffff1614806133235750613322818561277a565b5b8061336157508373ffffffffffffffffffffffffffffffffffffffff1661334984610a79565b73ffffffffffffffffffffffffffffffffffffffff16145b91505092915050565b8273ffffffffffffffffffffffffffffffffffffffff1661338a82611409565b73ffffffffffffffffffffffffffffffffffffffff16146133e0576040517f08c379a00000000000000000000000000000000000000000000000000000000081526004016133d790615642565b60405180910390fd5b600073ffffffffffffffffffffffffffffffffffffffff168273ffffffffffffffffffffffffffffffffffffffff161415613450576040517f08c379a0000000000000000000000000000000000000000000000000000000008152600401613447906156d4565b60405180910390fd5b61345d8383836001613a74565b8273ffffffffffffffffffffffffffffffffffffffff1661347d82611409565b73ffffffffffffffffffffffffffffffffffffffff16146134d3576040517f08c379a00000000000000000000000000000000000000000000000000000000081526004016134ca90615642565b60405180910390fd5b6004600082815260200190815260200160002060006101000a81549073ffffffffffffffffffffffffffffffffffffffff02191690556001600360008573ffffffffffffffffffffffffffffffffffffffff1673ffffffffffffffffffffffffffffffffffffffff168152602001908152602001600020600082825403925050819055506001600360008473ffffffffffffffffffffffffffffffffffffffff1673ffffffffffffffffffffffffffffffffffffffff16815260200190815260200160002060008282540192505081905550816002600083815260200190815260200160002060006101000a81548173ffffffffffffffffffffffffffffffffffffffff021916908373ffffffffffffffffffffffffffffffffffffffff160217905550808273ffffffffffffffffffffffffffffffffffffffff168473ffffffffffffffffffffffffffffffffffffffff167fddf252ad1be2c89b69c2b068fc378daa952ba7f163c4a11628f55a4df523b3ef60405160405180910390a461365f8383836001613b9a565b505050565b60006002600083815260200190815260200160002060009054906101000a900473ffffffffffffffffffffffffffffffffffffffff169050919050565b6136bb828260405180602001604052806000815250613ba0565b5050565b6136c882613a33565b613707576040517f08c379a00000000000000000000000000000000000000000000000000000000081526004016136fe90615766565b60405180910390fd5b8060066000848152602001908152602001600020908051906020019061372e9291906141fe565b505050565b8173ffffffffffffffffffffffffffffffffffffffff168373ffffffffffffffffffffffffffffffffffffffff1614156137a2576040517f08c379a0000000000000000000000000000000000000000000000000000000008152600401613799906157d2565b60405180910390fd5b80600560008573ffffffffffffffffffffffffffffffffffffffff1673ffffffffffffffffffffffffffffffffffffffff16815260200190815260200160002060008473ffffffffffffffffffffffffffffffffffffffff1673ffffffffffffffffffffffffffffffffffffffff16815260200190815260200160002060006101000a81548160ff0219169083151502179055508173ffffffffffffffffffffffffffffffffffffffff168373ffffffffffffffffffffffffffffffffffffffff167f17307eab39ab6107e8899845ad3d59bd9653f200f220920489ca2b5937696c3183604051613893919061447b565b60405180910390a3505050565b6138ab84848461336a565b6138b784848484613bfb565b6138f6576040517f08c379a00000000000000000000000000000000000000000000000000000000081526004016138ed90615864565b60405180910390fd5b50505050565b606060405180602001604052806000815250905090565b606061391e826131c9565b60006139286138fc565b905060008151116139485760405180602001604052806000815250613973565b8061395284613d92565b604051602001613963929190615500565b6040516020818303038152906040525b915050919050565b60008073d0d5e3db44de05e9f294bb0a3beeaf030de24ada905060008173ffffffffffffffffffffffffffffffffffffffff1663feaf968c6040518163ffffffff1660e01b815260040160a06040518083038186803b1580156139dd57600080fd5b505afa1580156139f1573d6000803e3d6000fd5b505050506040513d601f19601f82011682018060405250810190613a159190615911565b5050509150506402540be40081613a2c919061598c565b9250505090565b60008073ffffffffffffffffffffffffffffffffffffffff16613a5583613664565b73ffffffffffffffffffffffffffffffffffffffff1614159050919050565b6001811115613b9457600073ffffffffffffffffffffffffffffffffffffffff168473ffffffffffffffffffffffffffffffffffffffff1614613b085780600360008673ffffffffffffffffffffffffffffffffffffffff1673ffffffffffffffffffffffffffffffffffffffff1681526020019081526020016000206000828254613b009190615aa3565b925050819055505b600073ffffffffffffffffffffffffffffffffffffffff168373ffffffffffffffffffffffffffffffffffffffff1614613b935780600360008573ffffffffffffffffffffffffffffffffffffffff1673ffffffffffffffffffffffffffffffffffffffff1681526020019081526020016000206000828254613b8b91906151d1565b925050819055505b5b50505050565b50505050565b613baa8383613e6a565b613bb76000848484613bfb565b613bf6576040517f08c379a0000000000000000000000000000000000000000000000000000000008152600401613bed90615864565b60405180910390fd5b505050565b6000613c1c8473ffffffffffffffffffffffffffffffffffffffff16614088565b15613d85578373ffffffffffffffffffffffffffffffffffffffff1663150b7a02613c45613214565b8786866040518563ffffffff1660e01b8152600401613c679493929190615b2c565b602060405180830381600087803b158015613c8157600080fd5b505af1925050508015613cb257506040513d601f19601f82011682018060405250810190613caf9190615b8d565b60015b613d35573d8060008114613ce2576040519150601f19603f3d011682016040523d82523d6000602084013e613ce7565b606091505b50600081511415613d2d576040517f08c379a0000000000000000000000000000000000000000000000000000000008152600401613d2490615864565b60405180910390fd5b805181602001fd5b63150b7a0260e01b7bffffffffffffffffffffffffffffffffffffffffffffffffffffffff1916817bffffffffffffffffffffffffffffffffffffffffffffffffffffffff191614915050613d8a565b600190505b949350505050565b606060006001613da1846140ab565b01905060008167ffffffffffffffff811115613dc057613dbf6146b0565b5b6040519080825280601f01601f191660200182016040528015613df25781602001600182028036833780820191505090505b509050600082602001820190505b600115613e5f578080600190039150507f3031323334353637383961626364656600000000000000000000000000000000600a86061a8153600a8581613e4957613e48615570565b5b0494506000851415613e5a57613e5f565b613e00565b819350505050919050565b600073ffffffffffffffffffffffffffffffffffffffff168273ffffffffffffffffffffffffffffffffffffffff161415613eda576040517f08c379a0000000000000000000000000000000000000000000000000000000008152600401613ed190615c06565b60405180910390fd5b613ee381613a33565b15613f23576040517f08c379a0000000000000000000000000000000000000000000000000000000008152600401613f1a90615c72565b60405180910390fd5b613f31600083836001613a74565b613f3a81613a33565b15613f7a576040517f08c379a0000000000000000000000000000000000000000000000000000000008152600401613f7190615c72565b60405180910390fd5b6001600360008473ffffffffffffffffffffffffffffffffffffffff1673ffffffffffffffffffffffffffffffffffffffff16815260200190815260200160002060008282540192505081905550816002600083815260200190815260200160002060006101000a81548173ffffffffffffffffffffffffffffffffffffffff021916908373ffffffffffffffffffffffffffffffffffffffff160217905550808273ffffffffffffffffffffffffffffffffffffffff16600073ffffffffffffffffffffffffffffffffffffffff167fddf252ad1be2c89b69c2b068fc378daa952ba7f163c4a11628f55a4df523b3ef60405160405180910390a4614084600083836001613b9a565b5050565b6000808273ffffffffffffffffffffffffffffffffffffffff163b119050919050565b600080600090507a184f03e93ff9f4daa797ed6e38ed64bf6a1f0100000000000000008310614109577a184f03e93ff9f4daa797ed6e38ed64bf6a1f01000000000000000083816140ff576140fe615570565b5b0492506040810190505b6d04ee2d6d415b85acef81000000008310614146576d04ee2d6d415b85acef8100000000838161413c5761413b615570565b5b0492506020810190505b662386f26fc10000831061417557662386f26fc10000838161416b5761416a615570565b5b0492506010810190505b6305f5e100831061419e576305f5e100838161419457614193615570565b5b0492506008810190505b61271083106141c35761271083816141b9576141b8615570565b5b0492506004810190505b606483106141e657606483816141dc576141db615570565b5b0492506002810190505b600a83106141f5576001810190505b80915050919050565b82805461420a90614ed2565b90600052602060002090601f01602090048101928261422c5760008555614273565b82601f1061424557805160ff1916838001178555614273565b82800160010185558215614273579182015b82811115614272578251825591602001919060010190614257565b5b50905061428091906143aa565b5090565b6040518060a00160405280600081526020016060815260200160008152602001600073ffffffffffffffffffffffffffffffffffffffff1681526020016000151581525090565b82805482825590600052602060002090810192821561430c5760005260206000209182015b8281111561430b5782548255916001019190600101906142f0565b5b50905061431991906143aa565b5090565b82805461432990614ed2565b90600052602060002090601f01602090048101928261434b5760008555614399565b82601f1061435c5780548555614399565b8280016001018555821561439957600052602060002091601f016020900482015b8281111561439857825482559160010191906001019061437d565b5b5090506143a691906143aa565b5090565b5b808211156143c35760008160009055506001016143ab565b5090565b6000604051905090565b600080fd5b600080fd5b60007fffffffff0000000000000000000000000000000000000000000000000000000082169050919050565b614410816143db565b811461441b57600080fd5b50565b60008135905061442d81614407565b92915050565b600060208284031215614449576144486143d1565b5b60006144578482850161441e565b91505092915050565b60008115159050919050565b61447581614460565b82525050565b6000602082019050614490600083018461446c565b92915050565b6000819050919050565b6144a981614496565b81146144b457600080fd5b50565b6000813590506144c6816144a0565b92915050565b6000602082840312156144e2576144e16143d1565b5b60006144f0848285016144b7565b91505092915050565b61450281614496565b82525050565b600060208201905061451d60008301846144f9565b92915050565b600081519050919050565b600082825260208201905092915050565b60005b8381101561455d578082015181840152602081019050614542565b8381111561456c576000848401525b50505050565b6000601f19601f8301169050919050565b600061458e82614523565b614598818561452e565b93506145a881856020860161453f565b6145b181614572565b840191505092915050565b600060208201905081810360008301526145d68184614583565b905092915050565b600073ffffffffffffffffffffffffffffffffffffffff82169050919050565b6000614609826145de565b9050919050565b614619816145fe565b82525050565b60006020820190506146346000830184614610565b92915050565b614643816145fe565b811461464e57600080fd5b50565b6000813590506146608161463a565b92915050565b6000806040838503121561467d5761467c6143d1565b5b600061468b85828601614651565b925050602061469c858286016144b7565b9150509250929050565b600080fd5b600080fd5b7f4e487b7100000000000000000000000000000000000000000000000000000000600052604160045260246000fd5b6146e882614572565b810181811067ffffffffffffffff82111715614707576147066146b0565b5b80604052505050565b600061471a6143c7565b905061472682826146df565b919050565b600067ffffffffffffffff821115614746576147456146b0565b5b61474f82614572565b9050602081019050919050565b82818337600083830152505050565b600061477e6147798461472b565b614710565b90508281526020810184848401111561479a576147996146ab565b5b6147a584828561475c565b509392505050565b600082601f8301126147c2576147c16146a6565b5b81356147d284826020860161476b565b91505092915050565b6000602082840312156147f1576147f06143d1565b5b600082013567ffffffffffffffff81111561480f5761480e6143d6565b5b61481b848285016147ad565b91505092915050565b60008060006060848603121561483d5761483c6143d1565b5b600061484b86828701614651565b935050602061485c86828701614651565b925050604061486d868287016144b7565b9150509250925092565b60006020828403121561488d5761488c6143d1565b5b600061489b84828501614651565b91505092915050565b60006148af826145de565b9050919050565b6148bf816148a4565b82525050565b600060e0820190506148da600083018a6144f9565b6148e760208301896148b6565b81810360408301526148f98188614583565b9050614908606083018761446c565b61491560808301866144f9565b61492260a08301856144f9565b61492f60c08301846144f9565b98975050505050505050565b600081519050919050565b600082825260208201905092915050565b6000819050602082019050919050565b61497081614496565b82525050565b600082825260208201905092915050565b600061499282614523565b61499c8185614976565b93506149ac81856020860161453f565b6149b581614572565b840191505092915050565b6149c9816148a4565b82525050565b6149d881614460565b82525050565b600060a0830160008301516149f66000860182614967565b5060208301518482036020860152614a0e8282614987565b9150506040830151614a236040860182614967565b506060830151614a3660608601826149c0565b506080830151614a4960808601826149cf565b508091505092915050565b6000614a6083836149de565b905092915050565b6000602082019050919050565b6000614a808261493b565b614a8a8185614946565b935083602082028501614a9c85614957565b8060005b85811015614ad85784840389528151614ab98582614a54565b9450614ac483614a68565b925060208a01995050600181019050614aa0565b50829750879550505050505092915050565b60006020820190508181036000830152614b048184614a75565b905092915050565b600060a082019050614b2160008301886144f9565b8181036020830152614b338187614583565b9050614b4260408301866144f9565b614b4f60608301856148b6565b614b5c608083018461446c565b9695505050505050565b60008060408385031215614b7d57614b7c6143d1565b5b6000614b8b85828601614651565b9250506020614b9c85828601614651565b9150509250929050565b614baf81614460565b8114614bba57600080fd5b50565b600081359050614bcc81614ba6565b92915050565b60008060408385031215614be957614be86143d1565b5b6000614bf785828601614651565b9250506020614c0885828601614bbd565b9150509250929050565b600067ffffffffffffffff821115614c2d57614c2c6146b0565b5b614c3682614572565b9050602081019050919050565b6000614c56614c5184614c12565b614710565b905082815260208101848484011115614c7257614c716146ab565b5b614c7d84828561475c565b509392505050565b600082601f830112614c9a57614c996146a6565b5b8135614caa848260208601614c43565b91505092915050565b60008060008060808587031215614ccd57614ccc6143d1565b5b6000614cdb87828801614651565b9450506020614cec87828801614651565b9350506040614cfd878288016144b7565b925050606085013567ffffffffffffffff811115614d1e57614d1d6143d6565b5b614d2a87828801614c85565b91505092959194509250565b600081519050919050565b600082825260208201905092915050565b6000819050602082019050919050565b6000614d6e8383614967565b60208301905092915050565b6000602082019050919050565b6000614d9282614d36565b614d9c8185614d41565b9350614da783614d52565b8060005b83811015614dd8578151614dbf8882614d62565b9750614dca83614d7a565b925050600181019050614dab565b5085935050505092915050565b60006020820190508181036000830152614dff8184614d87565b905092915050565b60008060408385031215614e1e57614e1d6143d1565b5b6000614e2c858286016144b7565b925050602083013567ffffffffffffffff811115614e4d57614e4c6143d6565b5b614e59858286016147ad565b9150509250929050565b60008060408385031215614e7a57614e796143d1565b5b6000614e88858286016144b7565b9250506020614e9985828601614651565b9150509250929050565b7f4e487b7100000000000000000000000000000000000000000000000000000000600052602260045260246000fd5b60006002820490506001821680614eea57607f821691505b60208210811415614efe57614efd614ea3565b5b50919050565b7f4552433732313a20617070726f76616c20746f2063757272656e74206f776e6560008201527f7200000000000000000000000000000000000000000000000000000000000000602082015250565b6000614f6060218361452e565b9150614f6b82614f04565b604082019050919050565b60006020820190508181036000830152614f8f81614f53565b9050919050565b7f4552433732313a20617070726f76652063616c6c6572206973206e6f7420746f60008201527f6b656e206f776e6572206f7220617070726f76656420666f7220616c6c000000602082015250565b6000614ff2603d8361452e565b9150614ffd82614f96565b604082019050919050565b6000602082019050818103600083015261502181614fe5565b9050919050565b7f4e487b7100000000000000000000000000000000000000000000000000000000600052601160045260246000fd5b600061506282614496565b91507fffffffffffffffffffffffffffffffffffffffffffffffffffffffffffffffff82141561509557615094615028565b5b600182019050919050565b6000819050919050565b6000819050919050565b60006150cf6150ca6150c5846150a0565b6150aa565b614496565b9050919050565b6150df816150b4565b82525050565b600060a0820190506150fa60008301886144f9565b818103602083015261510c8187614583565b905061511b60408301866150d6565b61512860608301856148b6565b615135608083018461446c565b9695505050505050565b7f4552433732313a2063616c6c6572206973206e6f7420746f6b656e206f776e6560008201527f72206f7220617070726f76656400000000000000000000000000000000000000602082015250565b600061519b602d8361452e565b91506151a68261513f565b604082019050919050565b600060208201905081810360008301526151ca8161518e565b9050919050565b60006151dc82614496565b91506151e783614496565b9250827fffffffffffffffffffffffffffffffffffffffffffffffffffffffffffffffff0382111561521c5761521b615028565b5b828201905092915050565b7f4e487b7100000000000000000000000000000000000000000000000000000000600052603260045260246000fd5b7f4552433732313a20696e76616c696420746f6b656e2049440000000000000000600082015250565b600061528c60188361452e565b915061529782615256565b602082019050919050565b600060208201905081810360008301526152bb8161527f565b9050919050565b7f6d757374206f776e206e667420746f207365742070726f66696c650000000000600082015250565b60006152f8601b8361452e565b9150615303826152c2565b602082019050919050565b60006020820190508181036000830152615327816152eb565b9050919050565b7f4552433732313a2061646472657373207a65726f206973206e6f74206120766160008201527f6c6964206f776e65720000000000000000000000000000000000000000000000602082015250565b600061538a60298361452e565b91506153958261532e565b604082019050919050565b600060208201905081810360008301526153b98161537d565b9050919050565b60006153cb82614496565b91506153d683614496565b9250817fffffffffffffffffffffffffffffffffffffffffffffffffffffffffffffffff048311821515161561540f5761540e615028565b5b828202905092915050565b600081905092915050565b50565b600061543560008361541a565b915061544082615425565b600082019050919050565b600061545682615428565b9150819050919050565b6000819050919050565b600061548561548061547b84615460565b6150aa565b614496565b9050919050565b6154958161546a565b82525050565b60006040820190506154b06000830185614610565b6154bd602083018461548c565b9392505050565b600081905092915050565b60006154da82614523565b6154e481856154c4565b93506154f481856020860161453f565b80840191505092915050565b600061550c82856154cf565b915061551882846154cf565b91508190509392505050565b600060808201905061553960008301876144f9565b818103602083015261554b8186614583565b905061555a60408301856144f9565b61556760608301846148b6565b95945050505050565b7f4e487b7100000000000000000000000000000000000000000000000000000000600052601260045260246000fd5b60006155aa82614496565b91506155b583614496565b9250826155c5576155c4615570565b5b828204905092915050565b7f4552433732313a207472616e736665722066726f6d20696e636f72726563742060008201527f6f776e6572000000000000000000000000000000000000000000000000000000602082015250565b600061562c60258361452e565b9150615637826155d0565b604082019050919050565b6000602082019050818103600083015261565b8161561f565b9050919050565b7f4552433732313a207472616e7366657220746f20746865207a65726f2061646460008201527f7265737300000000000000000000000000000000000000000000000000000000602082015250565b60006156be60248361452e565b91506156c982615662565b604082019050919050565b600060208201905081810360008301526156ed816156b1565b9050919050565b7f45524337323155524953746f726167653a2055524920736574206f66206e6f6e60008201527f6578697374656e7420746f6b656e000000000000000000000000000000000000602082015250565b6000615750602e8361452e565b915061575b826156f4565b604082019050919050565b6000602082019050818103600083015261577f81615743565b9050919050565b7f4552433732313a20617070726f766520746f2063616c6c657200000000000000600082015250565b60006157bc60198361452e565b91506157c782615786565b602082019050919050565b600060208201905081810360008301526157eb816157af565b9050919050565b7f4552433732313a207472616e7366657220746f206e6f6e20455243373231526560008201527f63656976657220696d706c656d656e7465720000000000000000000000000000602082015250565b600061584e60328361452e565b9150615859826157f2565b604082019050919050565b6000602082019050818103600083015261587d81615841565b9050919050565b600069ffffffffffffffffffff82169050919050565b6158a381615884565b81146158ae57600080fd5b50565b6000815190506158c08161589a565b92915050565b6000819050919050565b6158d9816158c6565b81146158e457600080fd5b50565b6000815190506158f6816158d0565b92915050565b60008151905061590b816144a0565b92915050565b600080600080600060a0868803121561592d5761592c6143d1565b5b600061593b888289016158b1565b955050602061594c888289016158e7565b945050604061595d888289016158fc565b935050606061596e888289016158fc565b925050608061597f888289016158b1565b9150509295509295909350565b6000615997826158c6565b91506159a2836158c6565b9250827f7fffffffffffffffffffffffffffffffffffffffffffffffffffffffffffffff04821160008413600084131616156159e1576159e0615028565b5b817f80000000000000000000000000000000000000000000000000000000000000000583126000841260008413161615615a1e57615a1d615028565b5b827f80000000000000000000000000000000000000000000000000000000000000000582126000841360008412161615615a5b57615a5a615028565b5b827f7fffffffffffffffffffffffffffffffffffffffffffffffffffffffffffffff0582126000841260008412161615615a9857615a97615028565b5b828202905092915050565b6000615aae82614496565b9150615ab983614496565b925082821015615acc57615acb615028565b5b828203905092915050565b600081519050919050565b600082825260208201905092915050565b6000615afe82615ad7565b615b088185615ae2565b9350615b1881856020860161453f565b615b2181614572565b840191505092915050565b6000608082019050615b416000830187614610565b615b4e6020830186614610565b615b5b60408301856144f9565b8181036060830152615b6d8184615af3565b905095945050505050565b600081519050615b8781614407565b92915050565b600060208284031215615ba357615ba26143d1565b5b6000615bb184828501615b78565b91505092915050565b7f4552433732313a206d696e7420746f20746865207a65726f2061646472657373600082015250565b6000615bf060208361452e565b9150615bfb82615bba565b602082019050919050565b60006020820190508181036000830152615c1f81615be3565b9050919050565b7f4552433732313a20746f6b656e20616c7265616479206d696e74656400000000600082015250565b6000615c5c601c8361452e565b9150615c6782615c26565b602082019050919050565b60006020820190508181036000830152615c8b81615c4f565b905091905056fea2646970667358221220561f20397a42c1ecb6b4775a0fd30b8da35a04104932a13b85cf283086857feb64736f6c63430008090033",
  "linkReferences": {},
  "deployedLinkReferences": {}
}