{
  "_format": "hh-sol-artifact-1",
  "contractName": "Idex",
  "sourceName": "contracts/Idex.sol",
  "abi": [
    {
      "inputs": [],
      "stateMutability": "nonpayable",
      "type": "constructor"
    },
    {
      "inputs": [],
      "name": "Unauthorized",
      "type": "error"
    },
    {
      "inputs": [],
      "name": "addtipamount",
      "type": "error"
    },
    {
      "inputs": [],
      "name": "cantipyourownpost",
      "type": "error"
    },
    {
      "inputs": [],
      "name": "invalidpost",
      "type": "error"
    },
    {
      "inputs": [],
      "name": "monitizationotenable",
      "type": "error"
    },
    {
      "inputs": [],
      "name": "mustownNft",
      "type": "error"
    },
    {
      "inputs": [],
      "name": "paymentfaild",
      "type": "error"
    },
    {
      "inputs": [],
      "name": "yocantfollowself",
      "type": "error"
    },
    {
      "inputs": [],
      "name": "youhavesupported",
      "type": "error"
    },
    {
      "inputs": [],
      "name": "youmonitezed",
      "type": "error"
    },
    {
      "anonymous": false,
      "inputs": [
        {
          "indexed": true,
          "internalType": "address",
          "name": "owner",
          "type": "address"
        },
        {
          "indexed": true,
          "internalType": "address",
          "name": "approved",
          "type": "address"
        },
        {
          "indexed": true,
          "internalType": "uint256",
          "name": "tokenId",
          "type": "uint256"
        }
      ],
      "name": "Approval",
      "type": "event"
    },
    {
      "anonymous": false,
      "inputs": [
        {
          "indexed": true,
          "internalType": "address",
          "name": "owner",
          "type": "address"
        },
        {
          "indexed": true,
          "internalType": "address",
          "name": "operator",
          "type": "address"
        },
        {
          "indexed": false,
          "internalType": "bool",
          "name": "approved",
          "type": "bool"
        }
      ],
      "name": "ApprovalForAll",
      "type": "event"
    },
    {
      "anonymous": false,
      "inputs": [
        {
          "indexed": false,
          "internalType": "uint256",
          "name": "id",
          "type": "uint256"
        },
        {
          "indexed": false,
          "internalType": "string",
          "name": "hash",
          "type": "string"
        },
        {
          "indexed": false,
          "internalType": "uint256",
          "name": "tipamount",
          "type": "uint256"
        },
        {
          "indexed": false,
          "internalType": "address payable",
          "name": "author",
          "type": "address"
        }
      ],
      "name": "PostTiped",
      "type": "event"
    },
    {
      "anonymous": false,
      "inputs": [
        {
          "indexed": true,
          "internalType": "address",
          "name": "from",
          "type": "address"
        },
        {
          "indexed": true,
          "internalType": "address",
          "name": "to",
          "type": "address"
        },
        {
          "indexed": true,
          "internalType": "uint256",
          "name": "tokenId",
          "type": "uint256"
        }
      ],
      "name": "Transfer",
      "type": "event"
    },
    {
      "anonymous": false,
      "inputs": [
        {
          "indexed": false,
          "internalType": "uint256",
          "name": "follower",
          "type": "uint256"
        },
        {
          "indexed": false,
          "internalType": "uint256",
          "name": "following",
          "type": "uint256"
        }
      ],
      "name": "followed",
      "type": "event"
    },
    {
      "anonymous": false,
      "inputs": [
        {
          "indexed": false,
          "internalType": "uint256",
          "name": "id",
          "type": "uint256"
        },
        {
          "indexed": false,
          "internalType": "string",
          "name": "hash",
          "type": "string"
        },
        {
          "indexed": false,
          "internalType": "uint256",
          "name": "tipamount",
          "type": "uint256"
        },
        {
          "indexed": false,
          "internalType": "address payable",
          "name": "author",
          "type": "address"
        },
        {
          "indexed": false,
          "internalType": "bool",
          "name": "monitization",
          "type": "bool"
        }
      ],
      "name": "postcreated",
      "type": "event"
    },
    {
      "inputs": [
        {
          "internalType": "uint256",
          "name": "",
          "type": "uint256"
        }
      ],
      "name": "PosTowner",
      "outputs": [
        {
          "internalType": "address",
          "name": "",
          "type": "address"
        }
      ],
      "stateMutability": "view",
      "type": "function"
    },
    {
      "inputs": [
        {
          "internalType": "uint256",
          "name": "",
          "type": "uint256"
        }
      ],
      "name": "Posts",
      "outputs": [
        {
          "internalType": "uint256",
          "name": "id",
          "type": "uint256"
        },
        {
          "internalType": "string",
          "name": "hash",
          "type": "string"
        },
        {
          "internalType": "uint256",
          "name": "tipamount",
          "type": "uint256"
        },
        {
          "internalType": "address payable",
          "name": "author",
          "type": "address"
        },
        {
          "internalType": "bool",
          "name": "monitization",
          "type": "bool"
        },
        {
          "internalType": "string",
          "name": "nft",
          "type": "string"
        }
      ],
      "stateMutability": "view",
      "type": "function"
    },
    {
      "inputs": [
        {
          "internalType": "address",
          "name": "",
          "type": "address"
        }
      ],
      "name": "Profiled",
      "outputs": [
        {
          "internalType": "uint256",
          "name": "id",
          "type": "uint256"
        },
        {
          "internalType": "address payable",
          "name": "user",
          "type": "address"
        },
        {
          "internalType": "string",
          "name": "tokenURI",
          "type": "string"
        },
        {
          "internalType": "bool",
          "name": "monitization",
          "type": "bool"
        },
        {
          "internalType": "uint256",
          "name": "price",
          "type": "uint256"
        },
        {
          "internalType": "uint256",
          "name": "earning",
          "type": "uint256"
        },
        {
          "internalType": "uint256",
          "name": "idx",
          "type": "uint256"
        }
      ],
      "stateMutability": "view",
      "type": "function"
    },
    {
      "inputs": [
        {
          "internalType": "address",
          "name": "",
          "type": "address"
        }
      ],
      "name": "Profiles",
      "outputs": [
        {
          "internalType": "uint256",
          "name": "",
          "type": "uint256"
        }
      ],
      "stateMutability": "view",
      "type": "function"
    },
    {
      "inputs": [
        {
          "internalType": "uint256",
          "name": "",
          "type": "uint256"
        }
      ],
      "name": "SupportNftTowner",
      "outputs": [
        {
          "internalType": "address",
          "name": "",
          "type": "address"
        }
      ],
      "stateMutability": "view",
      "type": "function"
    },
    {
      "inputs": [
        {
          "internalType": "address",
          "name": "to",
          "type": "address"
        },
        {
          "internalType": "uint256",
          "name": "tokenId",
          "type": "uint256"
        }
      ],
      "name": "approve",
      "outputs": [],
      "stateMutability": "nonpayable",
      "type": "function"
    },
    {
      "inputs": [
        {
          "internalType": "address",
          "name": "owner",
          "type": "address"
        }
      ],
      "name": "balanceOf",
      "outputs": [
        {
          "internalType": "uint256",
          "name": "",
          "type": "uint256"
        }
      ],
      "stateMutability": "view",
      "type": "function"
    },
    {
      "inputs": [
        {
          "internalType": "string",
          "name": "_posthash",
          "type": "string"
        },
        {
          "internalType": "address",
          "name": "id",
          "type": "address"
        }
      ],
      "name": "craetepost",
      "outputs": [],
      "stateMutability": "nonpayable",
      "type": "function"
    },
    {
      "inputs": [
        {
          "internalType": "address",
          "name": "_followingid",
          "type": "address"
        },
        {
          "internalType": "address",
          "name": "_token",
          "type": "address"
        }
      ],
      "name": "follow",
      "outputs": [],
      "stateMutability": "payable",
      "type": "function"
    },
    {
      "inputs": [],
      "name": "getAllPosts",
      "outputs": [
        {
          "components": [
            {
              "internalType": "uint256",
              "name": "id",
              "type": "uint256"
            },
            {
              "internalType": "string",
              "name": "hash",
              "type": "string"
            },
            {
              "internalType": "uint256",
              "name": "tipamount",
              "type": "uint256"
            },
            {
              "internalType": "address payable",
              "name": "author",
              "type": "address"
            },
            {
              "internalType": "bool",
              "name": "monitization",
              "type": "bool"
            },
            {
              "internalType": "string",
              "name": "nft",
              "type": "string"
            }
          ],
          "internalType": "struct Idex.Post[]",
          "name": "_posts",
          "type": "tuple[]"
        }
      ],
      "stateMutability": "view",
      "type": "function"
    },
    {
      "inputs": [
        {
          "internalType": "uint256",
          "name": "tokenId",
          "type": "uint256"
        }
      ],
      "name": "getApproved",
      "outputs": [
        {
          "internalType": "address",
          "name": "",
          "type": "address"
        }
      ],
      "stateMutability": "view",
      "type": "function"
    },
    {
      "inputs": [
        {
          "internalType": "address",
          "name": "_add",
          "type": "address"
        }
      ],
      "name": "getMyNfts",
      "outputs": [
        {
          "internalType": "uint256[]",
          "name": "_ids",
          "type": "uint256[]"
        }
      ],
      "stateMutability": "view",
      "type": "function"
    },
    {
      "inputs": [
        {
          "internalType": "uint256",
          "name": "_idx",
          "type": "uint256"
        }
      ],
      "name": "getconva",
      "outputs": [
        {
          "internalType": "uint256",
          "name": "",
          "type": "uint256"
        }
      ],
      "stateMutability": "view",
      "type": "function"
    },
    {
      "inputs": [
        {
          "internalType": "address",
          "name": "_profile",
          "type": "address"
        }
      ],
      "name": "getfollwerCount",
      "outputs": [
        {
          "internalType": "uint256",
          "name": "count",
          "type": "uint256"
        }
      ],
      "stateMutability": "view",
      "type": "function"
    },
    {
      "inputs": [
        {
          "internalType": "address",
          "name": "_profile",
          "type": "address"
        }
      ],
      "name": "getfollwingCount",
      "outputs": [
        {
          "internalType": "uint256",
          "name": "count",
          "type": "uint256"
        }
      ],
      "stateMutability": "view",
      "type": "function"
    },
    {
      "inputs": [],
      "name": "getsupportnft",
      "outputs": [
        {
          "internalType": "string",
          "name": "nft",
          "type": "string"
        }
      ],
      "stateMutability": "view",
      "type": "function"
    },
    {
      "inputs": [
        {
          "internalType": "address",
          "name": "owner",
          "type": "address"
        },
        {
          "internalType": "address",
          "name": "operator",
          "type": "address"
        }
      ],
      "name": "isApprovedForAll",
      "outputs": [
        {
          "internalType": "bool",
          "name": "",
          "type": "bool"
        }
      ],
      "stateMutability": "view",
      "type": "function"
    },
    {
      "inputs": [
        {
          "internalType": "address",
          "name": "_following",
          "type": "address"
        }
      ],
      "name": "isfollowed",
      "outputs": [
        {
          "internalType": "bool",
          "name": "",
          "type": "bool"
        }
      ],
      "stateMutability": "view",
      "type": "function"
    },
    {
      "inputs": [
        {
          "internalType": "address",
          "name": "_profile",
          "type": "address"
        }
      ],
      "name": "ismontizeprofile",
      "outputs": [
        {
          "internalType": "bool",
          "name": "",
          "type": "bool"
        }
      ],
      "stateMutability": "view",
      "type": "function"
    },
    {
      "inputs": [
        {
          "internalType": "uint256",
          "name": "_id",
          "type": "uint256"
        }
      ],
      "name": "ispostmonitiz",
      "outputs": [
        {
          "internalType": "bool",
          "name": "",
          "type": "bool"
        }
      ],
      "stateMutability": "view",
      "type": "function"
    },
    {
      "inputs": [
        {
          "internalType": "string",
          "name": "_tokenURI",
          "type": "string"
        }
      ],
      "name": "mint",
      "outputs": [
        {
          "internalType": "uint256",
          "name": "",
          "type": "uint256"
        }
      ],
      "stateMutability": "nonpayable",
      "type": "function"
    },
    {
      "inputs": [
        {
          "internalType": "uint256",
          "name": "_id",
          "type": "uint256"
        }
      ],
      "name": "monitizepost",
      "outputs": [],
      "stateMutability": "nonpayable",
      "type": "function"
    },
    {
      "inputs": [
        {
          "internalType": "uint256",
          "name": "_price",
          "type": "uint256"
        },
        {
          "internalType": "string",
          "name": "_TorkenUri",
          "type": "string"
        }
      ],
      "name": "monitizeprofile",
      "outputs": [],
      "stateMutability": "nonpayable",
      "type": "function"
    },
    {
      "inputs": [],
      "name": "name",
      "outputs": [
        {
          "internalType": "string",
          "name": "",
          "type": "string"
        }
      ],
      "stateMutability": "view",
      "type": "function"
    },
    {
      "inputs": [
        {
          "internalType": "uint256",
          "name": "tokenId",
          "type": "uint256"
        }
      ],
      "name": "ownerOf",
      "outputs": [
        {
          "internalType": "address",
          "name": "",
          "type": "address"
        }
      ],
      "stateMutability": "view",
      "type": "function"
    },
    {
      "inputs": [
        {
          "internalType": "address",
          "name": "from",
          "type": "address"
        },
        {
          "internalType": "address",
          "name": "to",
          "type": "address"
        },
        {
          "internalType": "uint256",
          "name": "tokenId",
          "type": "uint256"
        }
      ],
      "name": "safeTransferFrom",
      "outputs": [],
      "stateMutability": "nonpayable",
      "type": "function"
    },
    {
      "inputs": [
        {
          "internalType": "address",
          "name": "from",
          "type": "address"
        },
        {
          "internalType": "address",
          "name": "to",
          "type": "address"
        },
        {
          "internalType": "uint256",
          "name": "tokenId",
          "type": "uint256"
        },
        {
          "internalType": "bytes",
          "name": "data",
          "type": "bytes"
        }
      ],
      "name": "safeTransferFrom",
      "outputs": [],
      "stateMutability": "nonpayable",
      "type": "function"
    },
    {
      "inputs": [
        {
          "internalType": "address",
          "name": "operator",
          "type": "address"
        },
        {
          "internalType": "bool",
          "name": "approved",
          "type": "bool"
        }
      ],
      "name": "setApprovalForAll",
      "outputs": [],
      "stateMutability": "nonpayable",
      "type": "function"
    },
    {
      "inputs": [
        {
          "internalType": "uint256",
          "name": "_id",
          "type": "uint256"
        }
      ],
      "name": "setprofile",
      "outputs": [],
      "stateMutability": "nonpayable",
      "type": "function"
    },
    {
      "inputs": [
        {
          "internalType": "bytes4",
          "name": "interfaceId",
          "type": "bytes4"
        }
      ],
      "name": "supportsInterface",
      "outputs": [
        {
          "internalType": "bool",
          "name": "",
          "type": "bool"
        }
      ],
      "stateMutability": "view",
      "type": "function"
    },
    {
      "inputs": [],
      "name": "symbol",
      "outputs": [
        {
          "internalType": "string",
          "name": "",
          "type": "string"
        }
      ],
      "stateMutability": "view",
      "type": "function"
    },
    {
      "inputs": [
        {
          "internalType": "uint256",
          "name": "_id",
          "type": "uint256"
        },
        {
          "internalType": "address",
          "name": "_token",
          "type": "address"
        }
      ],
      "name": "tipownerpost",
      "outputs": [],
      "stateMutability": "payable",
      "type": "function"
    },
    {
      "inputs": [
        {
          "internalType": "uint256",
          "name": "tokenId",
          "type": "uint256"
        }
      ],
      "name": "tokenURI",
      "outputs": [
        {
          "internalType": "string",
          "name": "",
          "type": "string"
        }
      ],
      "stateMutability": "view",
      "type": "function"
    },
    {
      "inputs": [
        {
          "internalType": "address",
          "name": "from",
          "type": "address"
        },
        {
          "internalType": "address",
          "name": "to",
          "type": "address"
        },
        {
          "internalType": "uint256",
          "name": "tokenId",
          "type": "uint256"
        }
      ],
      "name": "transferFrom",
      "outputs": [],
      "stateMutability": "nonpayable",
      "type": "function"
    }
  ],
  "bytecode": "0x60806040523480156200001157600080fd5b506040518060400160405280600481526020017f49444558000000000000000000000000000000000000000000000000000000008152506040518060400160405280600381526020017f4465780000000000000000000000000000000000000000000000000000000000815250816000908051906020019062000096929190620000b8565b508060019080519060200190620000af929190620000b8565b505050620001cd565b828054620000c69062000197565b90600052602060002090601f016020900481019282620000ea576000855562000136565b82601f106200010557805160ff191683800117855562000136565b8280016001018555821562000136579182015b828111156200013557825182559160200191906001019062000118565b5b50905062000145919062000149565b5090565b5b80821115620001645760008160009055506001016200014a565b5090565b7f4e487b7100000000000000000000000000000000000000000000000000000000600052602260045260246000fd5b60006002820490506001821680620001b057607f821691505b60208210811415620001c757620001c662000168565b5b50919050565b615e1180620001dd6000396000f3fe6080604052600436106101f95760003560e01c806395d89b411161010d578063cbfc291f116100a0578063e985e9c51161006f578063e985e9c5146107e9578063f6c1b77a14610826578063fa91d11c14610863578063faf60e361461088c578063fbb8d642146108c9576101f9565b8063cbfc291f14610709578063d85d3d2714610732578063da3d401a1461076f578063dfc48a3f146107ac576101f9565b8063a22cb465116100dc578063a22cb4651461064f578063b88d4fde14610678578063c3d8743b146106a1578063c87b56dd146106cc576101f9565b806395d89b41146105a257806399d147c2146105cd5780639b9e2afe146105e95780639cc937a414610626576101f9565b806330561100116101905780634fafef1a1161015f5780634fafef1a1461048057806361772519146104c25780636352211e146104ff57806364e1eecc1461053c57806370a0823114610565576101f9565b806330561100146103b25780633fbfaa6e146103dd57806342842e0e1461041a57806345ffb23c14610443576101f9565b8063095ea7b3116101cc578063095ea7b3146102e057806320ef17921461030957806323b872dd14610346578063266d042b1461036f576101f9565b806301ffc9a7146101fe5780630641f02c1461023b57806306fdde0314610278578063081812fc146102a3575b600080fd5b34801561020a57600080fd5b50610225600480360381019061022091906144f1565b6108e5565b6040516102329190614539565b60405180910390f35b34801561024757600080fd5b50610262600480360381019061025d919061458a565b6109c7565b60405161026f91906145c6565b60405180910390f35b34801561028457600080fd5b5061028d6109fa565b60405161029a919061467a565b60405180910390f35b3480156102af57600080fd5b506102ca60048036038101906102c5919061458a565b610a8c565b6040516102d791906146dd565b60405180910390f35b3480156102ec57600080fd5b5061030760048036038101906103029190614724565b610ad2565b005b34801561031557600080fd5b50610330600480360381019061032b919061458a565b610bea565b60405161033d91906146dd565b60405180910390f35b34801561035257600080fd5b5061036d60048036038101906103689190614764565b610c1d565b005b34801561037b57600080fd5b50610396600480360381019061039191906147b7565b610c7d565b6040516103a99796959493929190614805565b60405180910390f35b3480156103be57600080fd5b506103c7610d74565b6040516103d49190614a44565b60405180910390f35b3480156103e957600080fd5b5061040460048036038101906103ff91906147b7565b610fe2565b60405161041191906145c6565b60405180910390f35b34801561042657600080fd5b50610441600480360381019061043c9190614764565b611036565b005b34801561044f57600080fd5b5061046a600480360381019061046591906147b7565b611056565b60405161047791906145c6565b60405180910390f35b34801561048c57600080fd5b506104a760048036038101906104a2919061458a565b61106e565b6040516104b996959493929190614a66565b60405180910390f35b3480156104ce57600080fd5b506104e960048036038101906104e491906147b7565b6111e7565b6040516104f69190614539565b60405180910390f35b34801561050b57600080fd5b506105266004803603810190610521919061458a565b61125e565b60405161053391906146dd565b60405180910390f35b34801561054857600080fd5b50610563600480360381019061055e919061458a565b6112e5565b005b34801561057157600080fd5b5061058c600480360381019061058791906147b7565b6113a2565b60405161059991906145c6565b60405180910390f35b3480156105ae57600080fd5b506105b761145a565b6040516105c4919061467a565b60405180910390f35b6105e760048036038101906105e29190614ad5565b6114ec565b005b3480156105f557600080fd5b50610610600480360381019061060b919061458a565b611dba565b60405161061d91906146dd565b60405180910390f35b34801561063257600080fd5b5061064d60048036038101906106489190614c4a565b611ded565b005b34801561065b57600080fd5b5061067660048036038101906106719190614cd2565b6122c2565b005b34801561068457600080fd5b5061069f600480360381019061069a9190614db3565b6122d8565b005b3480156106ad57600080fd5b506106b661233a565b6040516106c3919061467a565b60405180910390f35b3480156106d857600080fd5b506106f360048036038101906106ee919061458a565b612412565b604051610700919061467a565b60405180910390f35b34801561071557600080fd5b50610730600480360381019061072b919061458a565b612525565b005b34801561073e57600080fd5b5061075960048036038101906107549190614e36565b61255d565b60405161076691906145c6565b60405180910390f35b34801561077b57600080fd5b50610796600480360381019061079191906147b7565b612636565b6040516107a39190614539565b60405180910390f35b3480156107b857600080fd5b506107d360048036038101906107ce91906147b7565b612727565b6040516107e091906145c6565b60405180910390f35b3480156107f557600080fd5b50610810600480360381019061080b9190614ad5565b61277b565b60405161081d9190614539565b60405180910390f35b34801561083257600080fd5b5061084d600480360381019061084891906147b7565b61280f565b60405161085a9190614f2e565b60405180910390f35b34801561086f57600080fd5b5061088a60048036038101906108859190614f50565b612915565b005b34801561089857600080fd5b506108b360048036038101906108ae919061458a565b612bc1565b6040516108c09190614539565b60405180910390f35b6108e360048036038101906108de9190614fac565b612c0c565b005b60007f80ac58cd000000000000000000000000000000000000000000000000000000007bffffffffffffffffffffffffffffffffffffffffffffffffffffffff1916827bffffffffffffffffffffffffffffffffffffffffffffffffffffffff191614806109b057507f5b5e139f000000000000000000000000000000000000000000000000000000007bffffffffffffffffffffffffffffffffffffffffffffffffffffffff1916827bffffffffffffffffffffffffffffffffffffffffffffffffffffffff1916145b806109c057506109bf826131dc565b5b9050919050565b6000806000600960008581526020019081526020016000209050806002015491506109f182613246565b92505050919050565b606060008054610a099061501b565b80601f0160208091040260200160405190810160405280929190818152602001828054610a359061501b565b8015610a825780601f10610a5757610100808354040283529160200191610a82565b820191906000526020600020905b815481529060010190602001808311610a6557829003601f168201915b5050505050905090565b6000610a9782613280565b6004600083815260200190815260200160002060009054906101000a900473ffffffffffffffffffffffffffffffffffffffff169050919050565b6000610add8261125e565b90508073ffffffffffffffffffffffffffffffffffffffff168373ffffffffffffffffffffffffffffffffffffffff161415610b4e576040517f08c379a0000000000000000000000000000000000000000000000000000000008152600401610b45906150bf565b60405180910390fd5b8073ffffffffffffffffffffffffffffffffffffffff16610b6d6132cb565b73ffffffffffffffffffffffffffffffffffffffff161480610b9c5750610b9b81610b966132cb565b61277b565b5b610bdb576040517f08c379a0000000000000000000000000000000000000000000000000000000008152600401610bd290615151565b60405180910390fd5b610be583836132d3565b505050565b600c6020528060005260406000206000915054906101000a900473ffffffffffffffffffffffffffffffffffffffff1681565b610c2e610c286132cb565b8261338c565b610c6d576040517f08c379a0000000000000000000000000000000000000000000000000000000008152600401610c64906151e3565b60405180910390fd5b610c78838383613421565b505050565b600b6020528060005260406000206000915090508060000154908060010160009054906101000a900473ffffffffffffffffffffffffffffffffffffffff1690806004018054610ccc9061501b565b80601f0160208091040260200160405190810160405280929190818152602001828054610cf89061501b565b8015610d455780601f10610d1a57610100808354040283529160200191610d45565b820191906000526020600020905b815481529060010190602001808311610d2857829003601f168201915b5050505050908060050160009054906101000a900460ff16908060060154908060070154908060080154905087565b606060085467ffffffffffffffff811115610d9257610d91614b1f565b5b604051908082528060200260200182016040528015610dcb57816020015b610db86142b5565b815260200190600190039081610db05790505b50905060005b8151811015610fde5760096000600183610deb9190615232565b81526020019081526020016000206040518060c001604052908160008201548152602001600182018054610e1e9061501b565b80601f0160208091040260200160405190810160405280929190818152602001828054610e4a9061501b565b8015610e975780601f10610e6c57610100808354040283529160200191610e97565b820191906000526020600020905b815481529060010190602001808311610e7a57829003601f168201915b50505050508152602001600282015481526020016003820160009054906101000a900473ffffffffffffffffffffffffffffffffffffffff1673ffffffffffffffffffffffffffffffffffffffff1673ffffffffffffffffffffffffffffffffffffffff1681526020016003820160149054906101000a900460ff16151515158152602001600482018054610f2b9061501b565b80601f0160208091040260200160405190810160405280929190818152602001828054610f579061501b565b8015610fa45780601f10610f7957610100808354040283529160200191610fa4565b820191906000526020600020905b815481529060010190602001808311610f8757829003601f168201915b505050505081525050828281518110610fc057610fbf615288565b5b60200260200101819052508080610fd6906152b7565b915050610dd1565b5090565b600080600b60008473ffffffffffffffffffffffffffffffffffffffff1673ffffffffffffffffffffffffffffffffffffffff16815260200190815260200160002090508060030180549050915050919050565b611051838383604051806020016040528060008152506122d8565b505050565b600a6020528060005260406000206000915090505481565b60096020528060005260406000206000915090508060000154908060010180546110979061501b565b80601f01602080910402602001604051908101604052809291908181526020018280546110c39061501b565b80156111105780601f106110e557610100808354040283529160200191611110565b820191906000526020600020905b8154815290600101906020018083116110f357829003601f168201915b5050505050908060020154908060030160009054906101000a900473ffffffffffffffffffffffffffffffffffffffff16908060030160149054906101000a900460ff16908060040180546111649061501b565b80601f01602080910402602001604051908101604052809291908181526020018280546111909061501b565b80156111dd5780601f106111b2576101008083540402835291602001916111dd565b820191906000526020600020905b8154815290600101906020018083116111c057829003601f168201915b5050505050905086565b600080600b60008473ffffffffffffffffffffffffffffffffffffffff1673ffffffffffffffffffffffffffffffffffffffff1681526020019081526020016000209050600115158160050160009054906101000a900460ff1615151415611253576001915050611259565b60009150505b919050565b60008061126a8361371b565b9050600073ffffffffffffffffffffffffffffffffffffffff168173ffffffffffffffffffffffffffffffffffffffff1614156112dc576040517f08c379a00000000000000000000000000000000000000000000000000000000081526004016112d39061534c565b60405180910390fd5b80915050919050565b3373ffffffffffffffffffffffffffffffffffffffff166113058261125e565b73ffffffffffffffffffffffffffffffffffffffff161461135b576040517f08c379a0000000000000000000000000000000000000000000000000000000008152600401611352906153b8565b60405180910390fd5b80600a60003373ffffffffffffffffffffffffffffffffffffffff1673ffffffffffffffffffffffffffffffffffffffff1681526020019081526020016000208190555050565b60008073ffffffffffffffffffffffffffffffffffffffff168273ffffffffffffffffffffffffffffffffffffffff161415611413576040517f08c379a000000000000000000000000000000000000000000000000000000000815260040161140a9061544a565b60405180910390fd5b600360008373ffffffffffffffffffffffffffffffffffffffff1673ffffffffffffffffffffffffffffffffffffffff168152602001908152602001600020549050919050565b6060600180546114699061501b565b80601f01602080910402602001604051908101604052809291908181526020018280546114959061501b565b80156114e25780601f106114b7576101008083540402835291602001916114e2565b820191906000526020600020905b8154815290600101906020018083116114c557829003601f168201915b5050505050905090565b6000600b60008473ffffffffffffffffffffffffffffffffffffffff1673ffffffffffffffffffffffffffffffffffffffff16815260200190815260200160002090506000600b60003373ffffffffffffffffffffffffffffffffffffffff1673ffffffffffffffffffffffffffffffffffffffff168152602001908152602001600020905060006305f5e1008360060154611588919061546a565b9050600061159586612636565b905060006115a2876111e7565b90508673ffffffffffffffffffffffffffffffffffffffff163373ffffffffffffffffffffffffffffffffffffffff16141561160a576040517f2057bbc900000000000000000000000000000000000000000000000000000000815260040160405180910390fd5b600115158215151415611649576040517f98575ed400000000000000000000000000000000000000000000000000000000815260040160405180910390fd5b600115158115151415611c055782341015611690576040517faa6e6a6900000000000000000000000000000000000000000000000000000000815260040160405180910390fd5b60008773ffffffffffffffffffffffffffffffffffffffff16346040516116b6906154f5565b60006040518083038185875af1925050503d80600081146116f3576040519150601f19603f3d011682016040523d82523d6000602084013e6116f8565b606091505b5050905080611733576040517faa6e6a6900000000000000000000000000000000000000000000000000000000815260040160405180910390fd5b60076000815480929190611746906152b7565b919050555085600201856000015490806001815401808255809150506001900390600052602060002001600090919091909150558460030186600001549080600181540180825580915050600190039060005260206000200160009091909190915055348660070160008282546117bd9190615232565b9250508190555085600b60008a73ffffffffffffffffffffffffffffffffffffffff1673ffffffffffffffffffffffffffffffffffffffff168152602001908152602001600020600082015481600001556001820160009054906101000a900473ffffffffffffffffffffffffffffffffffffffff168160010160006101000a81548173ffffffffffffffffffffffffffffffffffffffff021916908373ffffffffffffffffffffffffffffffffffffffff160217905550600282018160020190805461188b929190614303565b5060038201816003019080546118a2929190614303565b5060048201816004019080546118b79061501b565b6118c2929190614355565b506005820160009054906101000a900460ff168160050160006101000a81548160ff02191690831515021790555060068201548160060155600782015481600701556008820154816008015590505061191d33600754613758565b6119b56007548760040180546119329061501b565b80601f016020809104026020016040519081016040528092919081815260200182805461195e9061501b565b80156119ab5780601f10611980576101008083540402835291602001916119ab565b820191906000526020600020905b81548152906001019060200180831161198e57829003601f168201915b5050505050613776565b60008790508073ffffffffffffffffffffffffffffffffffffffff166340c10f1933670de0b6b3a76400006040518363ffffffff1660e01b81526004016119fd92919061554f565b600060405180830381600087803b158015611a1757600080fd5b505af1158015611a2b573d6000803e3d6000fd5b5050505084866008016000828254611a439190615232565b92505081905550600060405180606001604052806007548152602001896004018054611a6e9061501b565b80601f0160208091040260200160405190810160405280929190818152602001828054611a9a9061501b565b8015611ae75780601f10611abc57610100808354040283529160200191611ae7565b820191906000526020600020905b815481529060010190602001808311611aca57829003601f168201915b505050505081526020013373ffffffffffffffffffffffffffffffffffffffff168152509050600f819080600181540180825580915050600190039060005260206000209060030201600090919091909150600082015181600001556020820151816001019080519060200190611b5f9291906143e2565b5060408201518160020160006101000a81548173ffffffffffffffffffffffffffffffffffffffff021916908373ffffffffffffffffffffffffffffffffffffffff160217905550505033600d6000600754815260200190815260200160002060006101000a81548173ffffffffffffffffffffffffffffffffffffffff021916908373ffffffffffffffffffffffffffffffffffffffff160217905550505050611db1565b8460020184600001549080600181540180825580915050600190039060005260206000200160009091909190915055836003018560000154908060018154018082558091505060019003906000526020600020016000909190919091505584600b60008973ffffffffffffffffffffffffffffffffffffffff1673ffffffffffffffffffffffffffffffffffffffff168152602001908152602001600020600082015481600001556001820160009054906101000a900473ffffffffffffffffffffffffffffffffffffffff168160010160006101000a81548173ffffffffffffffffffffffffffffffffffffffff021916908373ffffffffffffffffffffffffffffffffffffffff1602179055506002820181600201908054611d2a929190614303565b506003820181600301908054611d41929190614303565b506004820181600401908054611d569061501b565b611d61929190614355565b506005820160009054906101000a900460ff168160050160006101000a81548160ff0219169083151502179055506006820154816006015560078201548160070155600882015481600801559050505b50505050505050565b600d6020528060005260406000206000915054906101000a900473ffffffffffffffffffffffffffffffffffffffff1681565b6000600b60008373ffffffffffffffffffffffffffffffffffffffff1673ffffffffffffffffffffffffffffffffffffffff16815260200190815260200160002090506001611e3b336113a2565b1015611e73576040517fe0149f6400000000000000000000000000000000000000000000000000000000815260040160405180910390fd5b600183511015611eaf576040517fe0149f6400000000000000000000000000000000000000000000000000000000815260040160405180910390fd5b60086000815480929190611ec2906152b7565b919050555060006040518060c001604052806008548152602001858152602001600081526020013373ffffffffffffffffffffffffffffffffffffffff168152602001600015158152602001836004018054611f1d9061501b565b80601f0160208091040260200160405190810160405280929190818152602001828054611f499061501b565b8015611f965780601f10611f6b57610100808354040283529160200191611f96565b820191906000526020600020905b815481529060010190602001808311611f7957829003601f168201915b505050505081525090506040518060c001604052806008548152602001858152602001600081526020013373ffffffffffffffffffffffffffffffffffffffff168152602001600015158152602001836004018054611ff49061501b565b80601f01602080910402602001604051908101604052809291908181526020018280546120209061501b565b801561206d5780601f106120425761010080835404028352916020019161206d565b820191906000526020600020905b81548152906001019060200180831161205057829003601f168201915b50505050508152506009600060085481526020019081526020016000206000820151816000015560208201518160010190805190602001906120b09291906143e2565b506040820151816002015560608201518160030160006101000a81548173ffffffffffffffffffffffffffffffffffffffff021916908373ffffffffffffffffffffffffffffffffffffffff16021790555060808201518160030160146101000a81548160ff02191690831515021790555060a082015181600401908051906020019061213e9291906143e2565b50905050600e8190806001815401808255809150506001900390600052602060002090600502016000909190919091506000820151816000015560208201518160010190805190602001906121949291906143e2565b506040820151816002015560608201518160030160006101000a81548173ffffffffffffffffffffffffffffffffffffffff021916908373ffffffffffffffffffffffffffffffffffffffff16021790555060808201518160030160146101000a81548160ff02191690831515021790555060a08201518160040190805190602001906122229291906143e2565b50505033600c6000600854815260200190815260200160002060006101000a81548173ffffffffffffffffffffffffffffffffffffffff021916908373ffffffffffffffffffffffffffffffffffffffff1602179055507fa069f13470b7d7b9458b0ab6c598e9f53c23db1a88c33157a1af53c63ca1a2e06008548560003360006040516122b49594939291906155b3565b60405180910390a150505050565b6122d46122cd6132cb565b83836137ea565b5050565b6122e96122e36132cb565b8361338c565b612328576040517f08c379a000000000000000000000000000000000000000000000000000000000815260040161231f906151e3565b60405180910390fd5b61233484848484613957565b50505050565b60606000600b60003373ffffffffffffffffffffffffffffffffffffffff1673ffffffffffffffffffffffffffffffffffffffff168152602001908152602001600020905080600401805461238e9061501b565b80601f01602080910402602001604051908101604052809291908181526020018280546123ba9061501b565b80156124075780601f106123dc57610100808354040283529160200191612407565b820191906000526020600020905b8154815290600101906020018083116123ea57829003601f168201915b505050505091505090565b606061241d82613280565b600060066000848152602001908152602001600020805461243d9061501b565b80601f01602080910402602001604051908101604052809291908181526020018280546124699061501b565b80156124b65780601f1061248b576101008083540402835291602001916124b6565b820191906000526020600020905b81548152906001019060200180831161249957829003601f168201915b5050505050905060006124c76139b3565b90506000815114156124dd578192505050612520565b6000825111156125125780826040516020016124fa929190615649565b60405160208183030381529060405292505050612520565b61251b846139ca565b925050505b919050565b600060096000838152602001908152602001600020905060018160030160146101000a81548160ff0219169083151502179055505050565b600060076000815480929190612572906152b7565b919050555061258333600754613758565b61258f60075483613776565b6000600b60003373ffffffffffffffffffffffffffffffffffffffff1673ffffffffffffffffffffffffffffffffffffffff16815260200190815260200160002090506007548160000181905550338160010160006101000a81548173ffffffffffffffffffffffffffffffffffffffff021916908373ffffffffffffffffffffffffffffffffffffffff16021790555061262b6007546112e5565b600754915050919050565b600080600b60008473ffffffffffffffffffffffffffffffffffffffff1673ffffffffffffffffffffffffffffffffffffffff16815260200190815260200160002090506000600b60003373ffffffffffffffffffffffffffffffffffffffff1673ffffffffffffffffffffffffffffffffffffffff168152602001908152602001600020905060005b826002018054905081101561271a5781600001548360020182815481106126ea576126e9615288565b5b906000526020600020015414156127075760019350505050612722565b8080612712906152b7565b9150506126c0565b506000925050505b919050565b600080600b60008473ffffffffffffffffffffffffffffffffffffffff1673ffffffffffffffffffffffffffffffffffffffff16815260200190815260200160002090508060020180549050915050919050565b6000600560008473ffffffffffffffffffffffffffffffffffffffff1673ffffffffffffffffffffffffffffffffffffffff16815260200190815260200160002060008373ffffffffffffffffffffffffffffffffffffffff1673ffffffffffffffffffffffffffffffffffffffff16815260200190815260200160002060009054906101000a900460ff16905092915050565b606061281a826113a2565b67ffffffffffffffff81111561283357612832614b1f565b5b6040519080825280602002602001820160405280156128615781602001602082028036833780820191505090505b509050600080600754905060005b8181101561290d578473ffffffffffffffffffffffffffffffffffffffff166128a360018361289e9190615232565b61125e565b73ffffffffffffffffffffffffffffffffffffffff1614156128fa576001816128cc9190615232565b8484815181106128df576128de615288565b5b60200260200101818152505082806128f6906152b7565b9350505b8080612905906152b7565b91505061286f565b505050919050565b6000600b60003373ffffffffffffffffffffffffffffffffffffffff1673ffffffffffffffffffffffffffffffffffffffff1681526020019081526020016000209050600015158160050160009054906101000a900460ff161515146129a7576040517f2b7a0fe900000000000000000000000000000000000000000000000000000000815260040160405180910390fd5b3373ffffffffffffffffffffffffffffffffffffffff168160010160009054906101000a900473ffffffffffffffffffffffffffffffffffffffff1673ffffffffffffffffffffffffffffffffffffffff1614612a30576040517f82b4290000000000000000000000000000000000000000000000000000000000815260040160405180910390fd5b60018160050160006101000a81548160ff02191690831515021790555082816006018190555081816004019080519060200190612a6e9291906143e2565b5080600b60003373ffffffffffffffffffffffffffffffffffffffff1673ffffffffffffffffffffffffffffffffffffffff168152602001908152602001600020600082015481600001556001820160009054906101000a900473ffffffffffffffffffffffffffffffffffffffff168160010160006101000a81548173ffffffffffffffffffffffffffffffffffffffff021916908373ffffffffffffffffffffffffffffffffffffffff1602179055506002820181600201908054612b36929190614303565b506003820181600301908054612b4d929190614303565b506004820181600401908054612b629061501b565b612b6d929190614355565b506005820160009054906101000a900460ff168160050160006101000a81548160ff021916908315150217905550600682015481600601556007820154816007015560088201548160080155905050505050565b600080600960008481526020019081526020016000209050600115158160030160149054906101000a900460ff1615151415612c01576001915050612c07565b60009150505b919050565b600082108015612c1e57506008548211155b15612c55576040517f8b61fdab00000000000000000000000000000000000000000000000000000000815260040160405180910390fd5b6000612c6083612bc1565b90506001151581151514612ca0576040517f50cbb21500000000000000000000000000000000000000000000000000000000815260040160405180910390fd5b80156131d7576000600960008581526020019081526020016000206040518060c001604052908160008201548152602001600182018054612ce09061501b565b80601f0160208091040260200160405190810160405280929190818152602001828054612d0c9061501b565b8015612d595780601f10612d2e57610100808354040283529160200191612d59565b820191906000526020600020905b815481529060010190602001808311612d3c57829003601f168201915b50505050508152602001600282015481526020016003820160009054906101000a900473ffffffffffffffffffffffffffffffffffffffff1673ffffffffffffffffffffffffffffffffffffffff1673ffffffffffffffffffffffffffffffffffffffff1681526020016003820160149054906101000a900460ff16151515158152602001600482018054612ded9061501b565b80601f0160208091040260200160405190810160405280929190818152602001828054612e199061501b565b8015612e665780601f10612e3b57610100808354040283529160200191612e66565b820191906000526020600020905b815481529060010190602001808311612e4957829003601f168201915b50505050508152505090503373ffffffffffffffffffffffffffffffffffffffff16816060015173ffffffffffffffffffffffffffffffffffffffff161415612edb576040517f76999ef300000000000000000000000000000000000000000000000000000000815260040160405180910390fd5b6000341015612f16576040517f26a81e1a00000000000000000000000000000000000000000000000000000000815260040160405180910390fd5b6000816060015173ffffffffffffffffffffffffffffffffffffffff1634604051612f40906154f5565b60006040518083038185875af1925050503d8060008114612f7d576040519150601f19603f3d011682016040523d82523d6000602084013e612f82565b606091505b505090506001151581151514612fc4576040517faa6e6a6900000000000000000000000000000000000000000000000000000000815260040160405180910390fd5b3482604001818151612fd69190615232565b9150818152505081600960008781526020019081526020016000206000820151816000015560208201518160010190805190602001906130179291906143e2565b506040820151816002015560608201518160030160006101000a81548173ffffffffffffffffffffffffffffffffffffffff021916908373ffffffffffffffffffffffffffffffffffffffff16021790555060808201518160030160146101000a81548160ff02191690831515021790555060a08201518160040190805190602001906130a59291906143e2565b5090505060008490508073ffffffffffffffffffffffffffffffffffffffff166340c10f1933670de0b6b3a76400006040518363ffffffff1660e01b81526004016130f192919061554f565b600060405180830381600087803b15801561310b57600080fd5b505af115801561311f573d6000803e3d6000fd5b505050506000600b60003373ffffffffffffffffffffffffffffffffffffffff1673ffffffffffffffffffffffffffffffffffffffff1681526020019081526020016000209050670de0b6b3a76400008160080160008282546131829190615232565b925050819055507f7fcfa126b080b9cd43e8eb0f3d8fc2459d3250191cc02456ef510543393cef35878560200151866040015187606001516040516131ca949392919061566d565b60405180910390a1505050505b505050565b60007f01ffc9a7000000000000000000000000000000000000000000000000000000007bffffffffffffffffffffffffffffffffffffffffffffffffffffffff1916827bffffffffffffffffffffffffffffffffffffffffffffffffffffffff1916149050919050565b600080613251613a32565b90506000670de0b6b3a7640000848361326a919061546a565b61327491906156e8565b90508092505050919050565b61328981613aea565b6132c8576040517f08c379a00000000000000000000000000000000000000000000000000000000081526004016132bf9061534c565b60405180910390fd5b50565b600033905090565b816004600083815260200190815260200160002060006101000a81548173ffffffffffffffffffffffffffffffffffffffff021916908373ffffffffffffffffffffffffffffffffffffffff160217905550808273ffffffffffffffffffffffffffffffffffffffff166133468361125e565b73ffffffffffffffffffffffffffffffffffffffff167f8c5be1e5ebec7d5bd14f71427d1e84f3dd0314c0f7b2291e5b200ac8c7c3b92560405160405180910390a45050565b6000806133988361125e565b90508073ffffffffffffffffffffffffffffffffffffffff168473ffffffffffffffffffffffffffffffffffffffff1614806133da57506133d9818561277b565b5b8061341857508373ffffffffffffffffffffffffffffffffffffffff1661340084610a8c565b73ffffffffffffffffffffffffffffffffffffffff16145b91505092915050565b8273ffffffffffffffffffffffffffffffffffffffff166134418261125e565b73ffffffffffffffffffffffffffffffffffffffff1614613497576040517f08c379a000000000000000000000000000000000000000000000000000000000815260040161348e9061578b565b60405180910390fd5b600073ffffffffffffffffffffffffffffffffffffffff168273ffffffffffffffffffffffffffffffffffffffff161415613507576040517f08c379a00000000000000000000000000000000000000000000000000000000081526004016134fe9061581d565b60405180910390fd5b6135148383836001613b2b565b8273ffffffffffffffffffffffffffffffffffffffff166135348261125e565b73ffffffffffffffffffffffffffffffffffffffff161461358a576040517f08c379a00000000000000000000000000000000000000000000000000000000081526004016135819061578b565b60405180910390fd5b6004600082815260200190815260200160002060006101000a81549073ffffffffffffffffffffffffffffffffffffffff02191690556001600360008573ffffffffffffffffffffffffffffffffffffffff1673ffffffffffffffffffffffffffffffffffffffff168152602001908152602001600020600082825403925050819055506001600360008473ffffffffffffffffffffffffffffffffffffffff1673ffffffffffffffffffffffffffffffffffffffff16815260200190815260200160002060008282540192505081905550816002600083815260200190815260200160002060006101000a81548173ffffffffffffffffffffffffffffffffffffffff021916908373ffffffffffffffffffffffffffffffffffffffff160217905550808273ffffffffffffffffffffffffffffffffffffffff168473ffffffffffffffffffffffffffffffffffffffff167fddf252ad1be2c89b69c2b068fc378daa952ba7f163c4a11628f55a4df523b3ef60405160405180910390a46137168383836001613c51565b505050565b60006002600083815260200190815260200160002060009054906101000a900473ffffffffffffffffffffffffffffffffffffffff169050919050565b613772828260405180602001604052806000815250613c57565b5050565b61377f82613aea565b6137be576040517f08c379a00000000000000000000000000000000000000000000000000000000081526004016137b5906158af565b60405180910390fd5b806006600084815260200190815260200160002090805190602001906137e59291906143e2565b505050565b8173ffffffffffffffffffffffffffffffffffffffff168373ffffffffffffffffffffffffffffffffffffffff161415613859576040517f08c379a00000000000000000000000000000000000000000000000000000000081526004016138509061591b565b60405180910390fd5b80600560008573ffffffffffffffffffffffffffffffffffffffff1673ffffffffffffffffffffffffffffffffffffffff16815260200190815260200160002060008473ffffffffffffffffffffffffffffffffffffffff1673ffffffffffffffffffffffffffffffffffffffff16815260200190815260200160002060006101000a81548160ff0219169083151502179055508173ffffffffffffffffffffffffffffffffffffffff168373ffffffffffffffffffffffffffffffffffffffff167f17307eab39ab6107e8899845ad3d59bd9653f200f220920489ca2b5937696c318360405161394a9190614539565b60405180910390a3505050565b613962848484613421565b61396e84848484613cb2565b6139ad576040517f08c379a00000000000000000000000000000000000000000000000000000000081526004016139a4906159ad565b60405180910390fd5b50505050565b606060405180602001604052806000815250905090565b60606139d582613280565b60006139df6139b3565b905060008151116139ff5760405180602001604052806000815250613a2a565b80613a0984613e49565b604051602001613a1a929190615649565b6040516020818303038152906040525b915050919050565b60008073d0d5e3db44de05e9f294bb0a3beeaf030de24ada905060008173ffffffffffffffffffffffffffffffffffffffff1663feaf968c6040518163ffffffff1660e01b815260040160a06040518083038186803b158015613a9457600080fd5b505afa158015613aa8573d6000803e3d6000fd5b505050506040513d601f19601f82011682018060405250810190613acc9190615a5a565b5050509150506402540be40081613ae39190615ad5565b9250505090565b60008073ffffffffffffffffffffffffffffffffffffffff16613b0c8361371b565b73ffffffffffffffffffffffffffffffffffffffff1614159050919050565b6001811115613c4b57600073ffffffffffffffffffffffffffffffffffffffff168473ffffffffffffffffffffffffffffffffffffffff1614613bbf5780600360008673ffffffffffffffffffffffffffffffffffffffff1673ffffffffffffffffffffffffffffffffffffffff1681526020019081526020016000206000828254613bb79190615bec565b925050819055505b600073ffffffffffffffffffffffffffffffffffffffff168373ffffffffffffffffffffffffffffffffffffffff1614613c4a5780600360008573ffffffffffffffffffffffffffffffffffffffff1673ffffffffffffffffffffffffffffffffffffffff1681526020019081526020016000206000828254613c429190615232565b925050819055505b5b50505050565b50505050565b613c618383613f21565b613c6e6000848484613cb2565b613cad576040517f08c379a0000000000000000000000000000000000000000000000000000000008152600401613ca4906159ad565b60405180910390fd5b505050565b6000613cd38473ffffffffffffffffffffffffffffffffffffffff1661413f565b15613e3c578373ffffffffffffffffffffffffffffffffffffffff1663150b7a02613cfc6132cb565b8786866040518563ffffffff1660e01b8152600401613d1e9493929190615c75565b602060405180830381600087803b158015613d3857600080fd5b505af1925050508015613d6957506040513d601f19601f82011682018060405250810190613d669190615cd6565b60015b613dec573d8060008114613d99576040519150601f19603f3d011682016040523d82523d6000602084013e613d9e565b606091505b50600081511415613de4576040517f08c379a0000000000000000000000000000000000000000000000000000000008152600401613ddb906159ad565b60405180910390fd5b805181602001fd5b63150b7a0260e01b7bffffffffffffffffffffffffffffffffffffffffffffffffffffffff1916817bffffffffffffffffffffffffffffffffffffffffffffffffffffffff191614915050613e41565b600190505b949350505050565b606060006001613e5884614162565b01905060008167ffffffffffffffff811115613e7757613e76614b1f565b5b6040519080825280601f01601f191660200182016040528015613ea95781602001600182028036833780820191505090505b509050600082602001820190505b600115613f16578080600190039150507f3031323334353637383961626364656600000000000000000000000000000000600a86061a8153600a8581613f0057613eff6156b9565b5b0494506000851415613f1157613f16565b613eb7565b819350505050919050565b600073ffffffffffffffffffffffffffffffffffffffff168273ffffffffffffffffffffffffffffffffffffffff161415613f91576040517f08c379a0000000000000000000000000000000000000000000000000000000008152600401613f8890615d4f565b60405180910390fd5b613f9a81613aea565b15613fda576040517f08c379a0000000000000000000000000000000000000000000000000000000008152600401613fd190615dbb565b60405180910390fd5b613fe8600083836001613b2b565b613ff181613aea565b15614031576040517f08c379a000000000000000000000000000000000000000000000000000000000815260040161402890615dbb565b60405180910390fd5b6001600360008473ffffffffffffffffffffffffffffffffffffffff1673ffffffffffffffffffffffffffffffffffffffff16815260200190815260200160002060008282540192505081905550816002600083815260200190815260200160002060006101000a81548173ffffffffffffffffffffffffffffffffffffffff021916908373ffffffffffffffffffffffffffffffffffffffff160217905550808273ffffffffffffffffffffffffffffffffffffffff16600073ffffffffffffffffffffffffffffffffffffffff167fddf252ad1be2c89b69c2b068fc378daa952ba7f163c4a11628f55a4df523b3ef60405160405180910390a461413b600083836001613c51565b5050565b6000808273ffffffffffffffffffffffffffffffffffffffff163b119050919050565b600080600090507a184f03e93ff9f4daa797ed6e38ed64bf6a1f01000000000000000083106141c0577a184f03e93ff9f4daa797ed6e38ed64bf6a1f01000000000000000083816141b6576141b56156b9565b5b0492506040810190505b6d04ee2d6d415b85acef810000000083106141fd576d04ee2d6d415b85acef810000000083816141f3576141f26156b9565b5b0492506020810190505b662386f26fc10000831061422c57662386f26fc100008381614222576142216156b9565b5b0492506010810190505b6305f5e1008310614255576305f5e100838161424b5761424a6156b9565b5b0492506008810190505b612710831061427a5761271083816142705761426f6156b9565b5b0492506004810190505b6064831061429d5760648381614293576142926156b9565b5b0492506002810190505b600a83106142ac576001810190505b80915050919050565b6040518060c00160405280600081526020016060815260200160008152602001600073ffffffffffffffffffffffffffffffffffffffff168152602001600015158152602001606081525090565b8280548282559060005260206000209081019282156143445760005260206000209182015b82811115614343578254825591600101919060010190614328565b5b5090506143519190614468565b5090565b8280546143619061501b565b90600052602060002090601f01602090048101928261438357600085556143d1565b82601f1061439457805485556143d1565b828001600101855582156143d157600052602060002091601f016020900482015b828111156143d05782548255916001019190600101906143b5565b5b5090506143de9190614468565b5090565b8280546143ee9061501b565b90600052602060002090601f0160209004810192826144105760008555614457565b82601f1061442957805160ff1916838001178555614457565b82800160010185558215614457579182015b8281111561445657825182559160200191906001019061443b565b5b5090506144649190614468565b5090565b5b80821115614481576000816000905550600101614469565b5090565b6000604051905090565b600080fd5b600080fd5b60007fffffffff0000000000000000000000000000000000000000000000000000000082169050919050565b6144ce81614499565b81146144d957600080fd5b50565b6000813590506144eb816144c5565b92915050565b6000602082840312156145075761450661448f565b5b6000614515848285016144dc565b91505092915050565b60008115159050919050565b6145338161451e565b82525050565b600060208201905061454e600083018461452a565b92915050565b6000819050919050565b61456781614554565b811461457257600080fd5b50565b6000813590506145848161455e565b92915050565b6000602082840312156145a05761459f61448f565b5b60006145ae84828501614575565b91505092915050565b6145c081614554565b82525050565b60006020820190506145db60008301846145b7565b92915050565b600081519050919050565b600082825260208201905092915050565b60005b8381101561461b578082015181840152602081019050614600565b8381111561462a576000848401525b50505050565b6000601f19601f8301169050919050565b600061464c826145e1565b61465681856145ec565b93506146668185602086016145fd565b61466f81614630565b840191505092915050565b600060208201905081810360008301526146948184614641565b905092915050565b600073ffffffffffffffffffffffffffffffffffffffff82169050919050565b60006146c78261469c565b9050919050565b6146d7816146bc565b82525050565b60006020820190506146f260008301846146ce565b92915050565b614701816146bc565b811461470c57600080fd5b50565b60008135905061471e816146f8565b92915050565b6000806040838503121561473b5761473a61448f565b5b60006147498582860161470f565b925050602061475a85828601614575565b9150509250929050565b60008060006060848603121561477d5761477c61448f565b5b600061478b8682870161470f565b935050602061479c8682870161470f565b92505060406147ad86828701614575565b9150509250925092565b6000602082840312156147cd576147cc61448f565b5b60006147db8482850161470f565b91505092915050565b60006147ef8261469c565b9050919050565b6147ff816147e4565b82525050565b600060e08201905061481a600083018a6145b7565b61482760208301896147f6565b81810360408301526148398188614641565b9050614848606083018761452a565b61485560808301866145b7565b61486260a08301856145b7565b61486f60c08301846145b7565b98975050505050505050565b600081519050919050565b600082825260208201905092915050565b6000819050602082019050919050565b6148b081614554565b82525050565b600082825260208201905092915050565b60006148d2826145e1565b6148dc81856148b6565b93506148ec8185602086016145fd565b6148f581614630565b840191505092915050565b614909816147e4565b82525050565b6149188161451e565b82525050565b600060c08301600083015161493660008601826148a7565b506020830151848203602086015261494e82826148c7565b915050604083015161496360408601826148a7565b5060608301516149766060860182614900565b506080830151614989608086018261490f565b5060a083015184820360a08601526149a182826148c7565b9150508091505092915050565b60006149ba838361491e565b905092915050565b6000602082019050919050565b60006149da8261487b565b6149e48185614886565b9350836020820285016149f685614897565b8060005b85811015614a325784840389528151614a1385826149ae565b9450614a1e836149c2565b925060208a019950506001810190506149fa565b50829750879550505050505092915050565b60006020820190508181036000830152614a5e81846149cf565b905092915050565b600060c082019050614a7b60008301896145b7565b8181036020830152614a8d8188614641565b9050614a9c60408301876145b7565b614aa960608301866147f6565b614ab6608083018561452a565b81810360a0830152614ac88184614641565b9050979650505050505050565b60008060408385031215614aec57614aeb61448f565b5b6000614afa8582860161470f565b9250506020614b0b8582860161470f565b9150509250929050565b600080fd5b600080fd5b7f4e487b7100000000000000000000000000000000000000000000000000000000600052604160045260246000fd5b614b5782614630565b810181811067ffffffffffffffff82111715614b7657614b75614b1f565b5b80604052505050565b6000614b89614485565b9050614b958282614b4e565b919050565b600067ffffffffffffffff821115614bb557614bb4614b1f565b5b614bbe82614630565b9050602081019050919050565b82818337600083830152505050565b6000614bed614be884614b9a565b614b7f565b905082815260208101848484011115614c0957614c08614b1a565b5b614c14848285614bcb565b509392505050565b600082601f830112614c3157614c30614b15565b5b8135614c41848260208601614bda565b91505092915050565b60008060408385031215614c6157614c6061448f565b5b600083013567ffffffffffffffff811115614c7f57614c7e614494565b5b614c8b85828601614c1c565b9250506020614c9c8582860161470f565b9150509250929050565b614caf8161451e565b8114614cba57600080fd5b50565b600081359050614ccc81614ca6565b92915050565b60008060408385031215614ce957614ce861448f565b5b6000614cf78582860161470f565b9250506020614d0885828601614cbd565b9150509250929050565b600067ffffffffffffffff821115614d2d57614d2c614b1f565b5b614d3682614630565b9050602081019050919050565b6000614d56614d5184614d12565b614b7f565b905082815260208101848484011115614d7257614d71614b1a565b5b614d7d848285614bcb565b509392505050565b600082601f830112614d9a57614d99614b15565b5b8135614daa848260208601614d43565b91505092915050565b60008060008060808587031215614dcd57614dcc61448f565b5b6000614ddb8782880161470f565b9450506020614dec8782880161470f565b9350506040614dfd87828801614575565b925050606085013567ffffffffffffffff811115614e1e57614e1d614494565b5b614e2a87828801614d85565b91505092959194509250565b600060208284031215614e4c57614e4b61448f565b5b600082013567ffffffffffffffff811115614e6a57614e69614494565b5b614e7684828501614c1c565b91505092915050565b600081519050919050565b600082825260208201905092915050565b6000819050602082019050919050565b6000614eb783836148a7565b60208301905092915050565b6000602082019050919050565b6000614edb82614e7f565b614ee58185614e8a565b9350614ef083614e9b565b8060005b83811015614f21578151614f088882614eab565b9750614f1383614ec3565b925050600181019050614ef4565b5085935050505092915050565b60006020820190508181036000830152614f488184614ed0565b905092915050565b60008060408385031215614f6757614f6661448f565b5b6000614f7585828601614575565b925050602083013567ffffffffffffffff811115614f9657614f95614494565b5b614fa285828601614c1c565b9150509250929050565b60008060408385031215614fc357614fc261448f565b5b6000614fd185828601614575565b9250506020614fe28582860161470f565b9150509250929050565b7f4e487b7100000000000000000000000000000000000000000000000000000000600052602260045260246000fd5b6000600282049050600182168061503357607f821691505b6020821081141561504757615046614fec565b5b50919050565b7f4552433732313a20617070726f76616c20746f2063757272656e74206f776e6560008201527f7200000000000000000000000000000000000000000000000000000000000000602082015250565b60006150a96021836145ec565b91506150b48261504d565b604082019050919050565b600060208201905081810360008301526150d88161509c565b9050919050565b7f4552433732313a20617070726f76652063616c6c6572206973206e6f7420746f60008201527f6b656e206f776e6572206f7220617070726f76656420666f7220616c6c000000602082015250565b600061513b603d836145ec565b9150615146826150df565b604082019050919050565b6000602082019050818103600083015261516a8161512e565b9050919050565b7f4552433732313a2063616c6c6572206973206e6f7420746f6b656e206f776e6560008201527f72206f7220617070726f76656400000000000000000000000000000000000000602082015250565b60006151cd602d836145ec565b91506151d882615171565b604082019050919050565b600060208201905081810360008301526151fc816151c0565b9050919050565b7f4e487b7100000000000000000000000000000000000000000000000000000000600052601160045260246000fd5b600061523d82614554565b915061524883614554565b9250827fffffffffffffffffffffffffffffffffffffffffffffffffffffffffffffffff0382111561527d5761527c615203565b5b828201905092915050565b7f4e487b7100000000000000000000000000000000000000000000000000000000600052603260045260246000fd5b60006152c282614554565b91507fffffffffffffffffffffffffffffffffffffffffffffffffffffffffffffffff8214156152f5576152f4615203565b5b600182019050919050565b7f4552433732313a20696e76616c696420746f6b656e2049440000000000000000600082015250565b60006153366018836145ec565b915061534182615300565b602082019050919050565b6000602082019050818103600083015261536581615329565b9050919050565b7f6d757374206f776e206e667420746f207365742070726f66696c650000000000600082015250565b60006153a2601b836145ec565b91506153ad8261536c565b602082019050919050565b600060208201905081810360008301526153d181615395565b9050919050565b7f4552433732313a2061646472657373207a65726f206973206e6f74206120766160008201527f6c6964206f776e65720000000000000000000000000000000000000000000000602082015250565b60006154346029836145ec565b915061543f826153d8565b604082019050919050565b6000602082019050818103600083015261546381615427565b9050919050565b600061547582614554565b915061548083614554565b9250817fffffffffffffffffffffffffffffffffffffffffffffffffffffffffffffffff04831182151516156154b9576154b8615203565b5b828202905092915050565b600081905092915050565b50565b60006154df6000836154c4565b91506154ea826154cf565b600082019050919050565b6000615500826154d2565b9150819050919050565b6000819050919050565b6000819050919050565b600061553961553461552f8461550a565b615514565b614554565b9050919050565b6155498161551e565b82525050565b600060408201905061556460008301856146ce565b6155716020830184615540565b9392505050565b6000819050919050565b600061559d61559861559384615578565b615514565b614554565b9050919050565b6155ad81615582565b82525050565b600060a0820190506155c860008301886145b7565b81810360208301526155da8187614641565b90506155e960408301866155a4565b6155f660608301856147f6565b615603608083018461452a565b9695505050505050565b600081905092915050565b6000615623826145e1565b61562d818561560d565b935061563d8185602086016145fd565b80840191505092915050565b60006156558285615618565b91506156618284615618565b91508190509392505050565b600060808201905061568260008301876145b7565b81810360208301526156948186614641565b90506156a360408301856145b7565b6156b060608301846147f6565b95945050505050565b7f4e487b7100000000000000000000000000000000000000000000000000000000600052601260045260246000fd5b60006156f382614554565b91506156fe83614554565b92508261570e5761570d6156b9565b5b828204905092915050565b7f4552433732313a207472616e736665722066726f6d20696e636f72726563742060008201527f6f776e6572000000000000000000000000000000000000000000000000000000602082015250565b60006157756025836145ec565b915061578082615719565b604082019050919050565b600060208201905081810360008301526157a481615768565b9050919050565b7f4552433732313a207472616e7366657220746f20746865207a65726f2061646460008201527f7265737300000000000000000000000000000000000000000000000000000000602082015250565b60006158076024836145ec565b9150615812826157ab565b604082019050919050565b60006020820190508181036000830152615836816157fa565b9050919050565b7f45524337323155524953746f726167653a2055524920736574206f66206e6f6e60008201527f6578697374656e7420746f6b656e000000000000000000000000000000000000602082015250565b6000615899602e836145ec565b91506158a48261583d565b604082019050919050565b600060208201905081810360008301526158c88161588c565b9050919050565b7f4552433732313a20617070726f766520746f2063616c6c657200000000000000600082015250565b60006159056019836145ec565b9150615910826158cf565b602082019050919050565b60006020820190508181036000830152615934816158f8565b9050919050565b7f4552433732313a207472616e7366657220746f206e6f6e20455243373231526560008201527f63656976657220696d706c656d656e7465720000000000000000000000000000602082015250565b60006159976032836145ec565b91506159a28261593b565b604082019050919050565b600060208201905081810360008301526159c68161598a565b9050919050565b600069ffffffffffffffffffff82169050919050565b6159ec816159cd565b81146159f757600080fd5b50565b600081519050615a09816159e3565b92915050565b6000819050919050565b615a2281615a0f565b8114615a2d57600080fd5b50565b600081519050615a3f81615a19565b92915050565b600081519050615a548161455e565b92915050565b600080600080600060a08688031215615a7657615a7561448f565b5b6000615a84888289016159fa565b9550506020615a9588828901615a30565b9450506040615aa688828901615a45565b9350506060615ab788828901615a45565b9250506080615ac8888289016159fa565b9150509295509295909350565b6000615ae082615a0f565b9150615aeb83615a0f565b9250827f7fffffffffffffffffffffffffffffffffffffffffffffffffffffffffffffff0482116000841360008413161615615b2a57615b29615203565b5b817f80000000000000000000000000000000000000000000000000000000000000000583126000841260008413161615615b6757615b66615203565b5b827f80000000000000000000000000000000000000000000000000000000000000000582126000841360008412161615615ba457615ba3615203565b5b827f7fffffffffffffffffffffffffffffffffffffffffffffffffffffffffffffff0582126000841260008412161615615be157615be0615203565b5b828202905092915050565b6000615bf782614554565b9150615c0283614554565b925082821015615c1557615c14615203565b5b828203905092915050565b600081519050919050565b600082825260208201905092915050565b6000615c4782615c20565b615c518185615c2b565b9350615c618185602086016145fd565b615c6a81614630565b840191505092915050565b6000608082019050615c8a60008301876146ce565b615c9760208301866146ce565b615ca460408301856145b7565b8181036060830152615cb68184615c3c565b905095945050505050565b600081519050615cd0816144c5565b92915050565b600060208284031215615cec57615ceb61448f565b5b6000615cfa84828501615cc1565b91505092915050565b7f4552433732313a206d696e7420746f20746865207a65726f2061646472657373600082015250565b6000615d396020836145ec565b9150615d4482615d03565b602082019050919050565b60006020820190508181036000830152615d6881615d2c565b9050919050565b7f4552433732313a20746f6b656e20616c7265616479206d696e74656400000000600082015250565b6000615da5601c836145ec565b9150615db082615d6f565b602082019050919050565b60006020820190508181036000830152615dd481615d98565b905091905056fea2646970667358221220c6848beb7f6a58a62cb714a12e91ef6441b88cae5f5c4ffb300fb326fe6f314d64736f6c63430008090033",
  "linkReferences": {},
  "deployedLinkReferences": {}
}