{
  "_format": "hh-sol-artifact-1",
  "contractName": "Idex",
  "sourceName": "contracts/Idex.sol",
  "abi": [
    {
      "inputs": [],
      "stateMutability": "nonpayable",
      "type": "constructor"
    },
    {
      "inputs": [],
      "name": "Unauthorized",
      "type": "error"
    },
    {
      "inputs": [],
      "name": "addtipamount",
      "type": "error"
    },
    {
      "inputs": [],
      "name": "cantipyourownpost",
      "type": "error"
    },
    {
      "inputs": [],
      "name": "invalidpost",
      "type": "error"
    },
    {
      "inputs": [],
      "name": "monitizationotenable",
      "type": "error"
    },
    {
      "inputs": [],
      "name": "mustownNft",
      "type": "error"
    },
    {
      "inputs": [],
      "name": "paymentfaild",
      "type": "error"
    },
    {
      "inputs": [],
      "name": "yocantfollowself",
      "type": "error"
    },
    {
      "inputs": [],
      "name": "youhavesupported",
      "type": "error"
    },
    {
      "inputs": [],
      "name": "youmonitezed",
      "type": "error"
    },
    {
      "anonymous": false,
      "inputs": [
        {
          "indexed": true,
          "internalType": "address",
          "name": "owner",
          "type": "address"
        },
        {
          "indexed": true,
          "internalType": "address",
          "name": "approved",
          "type": "address"
        },
        {
          "indexed": true,
          "internalType": "uint256",
          "name": "tokenId",
          "type": "uint256"
        }
      ],
      "name": "Approval",
      "type": "event"
    },
    {
      "anonymous": false,
      "inputs": [
        {
          "indexed": true,
          "internalType": "address",
          "name": "owner",
          "type": "address"
        },
        {
          "indexed": true,
          "internalType": "address",
          "name": "operator",
          "type": "address"
        },
        {
          "indexed": false,
          "internalType": "bool",
          "name": "approved",
          "type": "bool"
        }
      ],
      "name": "ApprovalForAll",
      "type": "event"
    },
    {
      "anonymous": false,
      "inputs": [
        {
          "indexed": false,
          "internalType": "uint256",
          "name": "id",
          "type": "uint256"
        },
        {
          "indexed": false,
          "internalType": "string",
          "name": "hash",
          "type": "string"
        },
        {
          "indexed": false,
          "internalType": "uint256",
          "name": "tipamount",
          "type": "uint256"
        },
        {
          "indexed": false,
          "internalType": "address payable",
          "name": "author",
          "type": "address"
        }
      ],
      "name": "PostTiped",
      "type": "event"
    },
    {
      "anonymous": false,
      "inputs": [
        {
          "indexed": true,
          "internalType": "address",
          "name": "from",
          "type": "address"
        },
        {
          "indexed": true,
          "internalType": "address",
          "name": "to",
          "type": "address"
        },
        {
          "indexed": true,
          "internalType": "uint256",
          "name": "tokenId",
          "type": "uint256"
        }
      ],
      "name": "Transfer",
      "type": "event"
    },
    {
      "anonymous": false,
      "inputs": [
        {
          "indexed": false,
          "internalType": "uint256",
          "name": "follower",
          "type": "uint256"
        },
        {
          "indexed": false,
          "internalType": "uint256",
          "name": "following",
          "type": "uint256"
        }
      ],
      "name": "followed",
      "type": "event"
    },
    {
      "anonymous": false,
      "inputs": [
        {
          "indexed": false,
          "internalType": "uint256",
          "name": "id",
          "type": "uint256"
        },
        {
          "indexed": false,
          "internalType": "string",
          "name": "hash",
          "type": "string"
        },
        {
          "indexed": false,
          "internalType": "uint256",
          "name": "tipamount",
          "type": "uint256"
        },
        {
          "indexed": false,
          "internalType": "address payable",
          "name": "author",
          "type": "address"
        },
        {
          "indexed": false,
          "internalType": "bool",
          "name": "monitization",
          "type": "bool"
        }
      ],
      "name": "postcreated",
      "type": "event"
    },
    {
      "inputs": [
        {
          "internalType": "uint256",
          "name": "",
          "type": "uint256"
        }
      ],
      "name": "PosTowner",
      "outputs": [
        {
          "internalType": "address",
          "name": "",
          "type": "address"
        }
      ],
      "stateMutability": "view",
      "type": "function"
    },
    {
      "inputs": [
        {
          "internalType": "uint256",
          "name": "",
          "type": "uint256"
        }
      ],
      "name": "Posts",
      "outputs": [
        {
          "internalType": "uint256",
          "name": "id",
          "type": "uint256"
        },
        {
          "internalType": "string",
          "name": "hash",
          "type": "string"
        },
        {
          "internalType": "uint256",
          "name": "tipamount",
          "type": "uint256"
        },
        {
          "internalType": "address payable",
          "name": "author",
          "type": "address"
        },
        {
          "internalType": "bool",
          "name": "monitization",
          "type": "bool"
        }
      ],
      "stateMutability": "view",
      "type": "function"
    },
    {
      "inputs": [
        {
          "internalType": "address",
          "name": "",
          "type": "address"
        }
      ],
      "name": "Profiled",
      "outputs": [
        {
          "internalType": "uint256",
          "name": "id",
          "type": "uint256"
        },
        {
          "internalType": "address payable",
          "name": "user",
          "type": "address"
        },
        {
          "internalType": "string",
          "name": "tokenURI",
          "type": "string"
        },
        {
          "internalType": "bool",
          "name": "monitization",
          "type": "bool"
        },
        {
          "internalType": "uint256",
          "name": "price",
          "type": "uint256"
        },
        {
          "internalType": "uint256",
          "name": "earning",
          "type": "uint256"
        },
        {
          "internalType": "uint256",
          "name": "idx",
          "type": "uint256"
        }
      ],
      "stateMutability": "view",
      "type": "function"
    },
    {
      "inputs": [
        {
          "internalType": "address",
          "name": "",
          "type": "address"
        }
      ],
      "name": "Profiles",
      "outputs": [
        {
          "internalType": "uint256",
          "name": "",
          "type": "uint256"
        }
      ],
      "stateMutability": "view",
      "type": "function"
    },
    {
      "inputs": [
        {
          "internalType": "uint256",
          "name": "",
          "type": "uint256"
        }
      ],
      "name": "SupportNftTowner",
      "outputs": [
        {
          "internalType": "address",
          "name": "",
          "type": "address"
        }
      ],
      "stateMutability": "view",
      "type": "function"
    },
    {
      "inputs": [
        {
          "internalType": "address",
          "name": "to",
          "type": "address"
        },
        {
          "internalType": "uint256",
          "name": "tokenId",
          "type": "uint256"
        }
      ],
      "name": "approve",
      "outputs": [],
      "stateMutability": "nonpayable",
      "type": "function"
    },
    {
      "inputs": [
        {
          "internalType": "address",
          "name": "owner",
          "type": "address"
        }
      ],
      "name": "balanceOf",
      "outputs": [
        {
          "internalType": "uint256",
          "name": "",
          "type": "uint256"
        }
      ],
      "stateMutability": "view",
      "type": "function"
    },
    {
      "inputs": [
        {
          "internalType": "string",
          "name": "_posthash",
          "type": "string"
        }
      ],
      "name": "craetepost",
      "outputs": [],
      "stateMutability": "nonpayable",
      "type": "function"
    },
    {
      "inputs": [
        {
          "internalType": "address",
          "name": "_followingid",
          "type": "address"
        },
        {
          "internalType": "address",
          "name": "_token",
          "type": "address"
        }
      ],
      "name": "follow",
      "outputs": [],
      "stateMutability": "payable",
      "type": "function"
    },
    {
      "inputs": [],
      "name": "getAllPosts",
      "outputs": [
        {
          "components": [
            {
              "internalType": "uint256",
              "name": "id",
              "type": "uint256"
            },
            {
              "internalType": "string",
              "name": "hash",
              "type": "string"
            },
            {
              "internalType": "uint256",
              "name": "tipamount",
              "type": "uint256"
            },
            {
              "internalType": "address payable",
              "name": "author",
              "type": "address"
            },
            {
              "internalType": "bool",
              "name": "monitization",
              "type": "bool"
            }
          ],
          "internalType": "struct Idex.Post[]",
          "name": "_posts",
          "type": "tuple[]"
        }
      ],
      "stateMutability": "view",
      "type": "function"
    },
    {
      "inputs": [
        {
          "internalType": "uint256",
          "name": "tokenId",
          "type": "uint256"
        }
      ],
      "name": "getApproved",
      "outputs": [
        {
          "internalType": "address",
          "name": "",
          "type": "address"
        }
      ],
      "stateMutability": "view",
      "type": "function"
    },
    {
      "inputs": [
        {
          "internalType": "address",
          "name": "_add",
          "type": "address"
        }
      ],
      "name": "getMyNfts",
      "outputs": [
        {
          "internalType": "uint256[]",
          "name": "_ids",
          "type": "uint256[]"
        }
      ],
      "stateMutability": "view",
      "type": "function"
    },
    {
      "inputs": [],
      "name": "getMypost",
      "outputs": [
        {
          "components": [
            {
              "internalType": "uint256",
              "name": "id",
              "type": "uint256"
            },
            {
              "internalType": "string",
              "name": "hash",
              "type": "string"
            },
            {
              "internalType": "uint256",
              "name": "tipamount",
              "type": "uint256"
            },
            {
              "internalType": "address payable",
              "name": "author",
              "type": "address"
            },
            {
              "internalType": "bool",
              "name": "monitization",
              "type": "bool"
            }
          ],
          "internalType": "struct Idex.Post[]",
          "name": "",
          "type": "tuple[]"
        }
      ],
      "stateMutability": "view",
      "type": "function"
    },
    {
      "inputs": [
        {
          "internalType": "uint256",
          "name": "amount",
          "type": "uint256"
        }
      ],
      "name": "getconva",
      "outputs": [
        {
          "internalType": "uint256",
          "name": "",
          "type": "uint256"
        }
      ],
      "stateMutability": "view",
      "type": "function"
    },
    {
      "inputs": [
        {
          "internalType": "address",
          "name": "_profile",
          "type": "address"
        }
      ],
      "name": "getfollwerCount",
      "outputs": [
        {
          "internalType": "uint256",
          "name": "count",
          "type": "uint256"
        }
      ],
      "stateMutability": "view",
      "type": "function"
    },
    {
      "inputs": [
        {
          "internalType": "address",
          "name": "_profile",
          "type": "address"
        }
      ],
      "name": "getfollwingCount",
      "outputs": [
        {
          "internalType": "uint256",
          "name": "count",
          "type": "uint256"
        }
      ],
      "stateMutability": "view",
      "type": "function"
    },
    {
      "inputs": [],
      "name": "getsupportnft",
      "outputs": [
        {
          "internalType": "string",
          "name": "nft",
          "type": "string"
        }
      ],
      "stateMutability": "view",
      "type": "function"
    },
    {
      "inputs": [
        {
          "internalType": "address",
          "name": "owner",
          "type": "address"
        },
        {
          "internalType": "address",
          "name": "operator",
          "type": "address"
        }
      ],
      "name": "isApprovedForAll",
      "outputs": [
        {
          "internalType": "bool",
          "name": "",
          "type": "bool"
        }
      ],
      "stateMutability": "view",
      "type": "function"
    },
    {
      "inputs": [
        {
          "internalType": "address",
          "name": "_following",
          "type": "address"
        }
      ],
      "name": "isfollowed",
      "outputs": [
        {
          "internalType": "bool",
          "name": "",
          "type": "bool"
        }
      ],
      "stateMutability": "view",
      "type": "function"
    },
    {
      "inputs": [
        {
          "internalType": "address",
          "name": "_profile",
          "type": "address"
        }
      ],
      "name": "ismontizeprofile",
      "outputs": [
        {
          "internalType": "bool",
          "name": "",
          "type": "bool"
        }
      ],
      "stateMutability": "view",
      "type": "function"
    },
    {
      "inputs": [
        {
          "internalType": "uint256",
          "name": "_id",
          "type": "uint256"
        }
      ],
      "name": "ispostmonitiz",
      "outputs": [
        {
          "internalType": "bool",
          "name": "",
          "type": "bool"
        }
      ],
      "stateMutability": "view",
      "type": "function"
    },
    {
      "inputs": [
        {
          "internalType": "string",
          "name": "_tokenURI",
          "type": "string"
        }
      ],
      "name": "mint",
      "outputs": [
        {
          "internalType": "uint256",
          "name": "",
          "type": "uint256"
        }
      ],
      "stateMutability": "nonpayable",
      "type": "function"
    },
    {
      "inputs": [
        {
          "internalType": "uint256",
          "name": "_id",
          "type": "uint256"
        }
      ],
      "name": "monitizepost",
      "outputs": [],
      "stateMutability": "nonpayable",
      "type": "function"
    },
    {
      "inputs": [
        {
          "internalType": "uint256",
          "name": "_price",
          "type": "uint256"
        },
        {
          "internalType": "string",
          "name": "_TorkenUri",
          "type": "string"
        }
      ],
      "name": "monitizeprofile",
      "outputs": [],
      "stateMutability": "nonpayable",
      "type": "function"
    },
    {
      "inputs": [],
      "name": "name",
      "outputs": [
        {
          "internalType": "string",
          "name": "",
          "type": "string"
        }
      ],
      "stateMutability": "view",
      "type": "function"
    },
    {
      "inputs": [
        {
          "internalType": "uint256",
          "name": "tokenId",
          "type": "uint256"
        }
      ],
      "name": "ownerOf",
      "outputs": [
        {
          "internalType": "address",
          "name": "",
          "type": "address"
        }
      ],
      "stateMutability": "view",
      "type": "function"
    },
    {
      "inputs": [
        {
          "internalType": "address",
          "name": "from",
          "type": "address"
        },
        {
          "internalType": "address",
          "name": "to",
          "type": "address"
        },
        {
          "internalType": "uint256",
          "name": "tokenId",
          "type": "uint256"
        }
      ],
      "name": "safeTransferFrom",
      "outputs": [],
      "stateMutability": "nonpayable",
      "type": "function"
    },
    {
      "inputs": [
        {
          "internalType": "address",
          "name": "from",
          "type": "address"
        },
        {
          "internalType": "address",
          "name": "to",
          "type": "address"
        },
        {
          "internalType": "uint256",
          "name": "tokenId",
          "type": "uint256"
        },
        {
          "internalType": "bytes",
          "name": "data",
          "type": "bytes"
        }
      ],
      "name": "safeTransferFrom",
      "outputs": [],
      "stateMutability": "nonpayable",
      "type": "function"
    },
    {
      "inputs": [
        {
          "internalType": "address",
          "name": "operator",
          "type": "address"
        },
        {
          "internalType": "bool",
          "name": "approved",
          "type": "bool"
        }
      ],
      "name": "setApprovalForAll",
      "outputs": [],
      "stateMutability": "nonpayable",
      "type": "function"
    },
    {
      "inputs": [
        {
          "internalType": "uint256",
          "name": "_id",
          "type": "uint256"
        }
      ],
      "name": "setprofile",
      "outputs": [],
      "stateMutability": "nonpayable",
      "type": "function"
    },
    {
      "inputs": [
        {
          "internalType": "bytes4",
          "name": "interfaceId",
          "type": "bytes4"
        }
      ],
      "name": "supportsInterface",
      "outputs": [
        {
          "internalType": "bool",
          "name": "",
          "type": "bool"
        }
      ],
      "stateMutability": "view",
      "type": "function"
    },
    {
      "inputs": [],
      "name": "symbol",
      "outputs": [
        {
          "internalType": "string",
          "name": "",
          "type": "string"
        }
      ],
      "stateMutability": "view",
      "type": "function"
    },
    {
      "inputs": [
        {
          "internalType": "uint256",
          "name": "_id",
          "type": "uint256"
        },
        {
          "internalType": "address",
          "name": "_token",
          "type": "address"
        }
      ],
      "name": "tipownerpost",
      "outputs": [],
      "stateMutability": "payable",
      "type": "function"
    },
    {
      "inputs": [
        {
          "internalType": "uint256",
          "name": "tokenId",
          "type": "uint256"
        }
      ],
      "name": "tokenURI",
      "outputs": [
        {
          "internalType": "string",
          "name": "",
          "type": "string"
        }
      ],
      "stateMutability": "view",
      "type": "function"
    },
    {
      "inputs": [
        {
          "internalType": "address",
          "name": "from",
          "type": "address"
        },
        {
          "internalType": "address",
          "name": "to",
          "type": "address"
        },
        {
          "internalType": "uint256",
          "name": "tokenId",
          "type": "uint256"
        }
      ],
      "name": "transferFrom",
      "outputs": [],
      "stateMutability": "nonpayable",
      "type": "function"
    }
  ],
  "bytecode": "0x60806040523480156200001157600080fd5b506040518060400160405280600481526020017f49444558000000000000000000000000000000000000000000000000000000008152506040518060400160405280600381526020017f4465780000000000000000000000000000000000000000000000000000000000815250816000908051906020019062000096929190620000b8565b508060019080519060200190620000af929190620000b8565b505050620001cd565b828054620000c69062000197565b90600052602060002090601f016020900481019282620000ea576000855562000136565b82601f106200010557805160ff191683800117855562000136565b8280016001018555821562000136579182015b828111156200013557825182559160200191906001019062000118565b5b50905062000145919062000149565b5090565b5b80821115620001645760008160009055506001016200014a565b5090565b7f4e487b7100000000000000000000000000000000000000000000000000000000600052602260045260246000fd5b60006002820490506001821680620001b057607f821691505b60208210811415620001c757620001c662000168565b5b50919050565b615d4380620001dd6000396000f3fe6080604052600436106102045760003560e01c806370a0823111610118578063cbfc291f116100a0578063e985e9c51161006f578063e985e9c51461081e578063f6c1b77a1461085b578063fa91d11c14610898578063faf60e36146108c1578063fbb8d642146108fe57610204565b8063cbfc291f1461073e578063d85d3d2714610767578063da3d401a146107a4578063dfc48a3f146107e157610204565b8063a22cb465116100e7578063a22cb46514610659578063b88d4fde14610682578063c3d8743b146106ab578063c493f292146106d6578063c87b56dd1461070157610204565b806370a082311461059857806395d89b41146105d557806399d147c2146106005780639b9e2afe1461061c57610204565b8063266d042b1161019b57806345ffb23c1161016a57806345ffb23c146104775780634fafef1a146104b457806361772519146104f55780636352211e1461053257806364e1eecc1461056f57610204565b8063266d042b146103a357806330561100146103e65780633fbfaa6e1461041157806342842e0e1461044e57610204565b8063095ea7b3116101d7578063095ea7b3146102eb57806311be5a0b1461031457806320ef17921461033d57806323b872dd1461037a57610204565b806301ffc9a7146102095780630641f02c1461024657806306fdde0314610283578063081812fc146102ae575b600080fd5b34801561021557600080fd5b50610230600480360381019061022b91906144ae565b61091a565b60405161023d91906144f6565b60405180910390f35b34801561025257600080fd5b5061026d60048036038101906102689190614547565b6109fc565b60405161027a9190614583565b60405180910390f35b34801561028f57600080fd5b50610298610a0e565b6040516102a59190614637565b60405180910390f35b3480156102ba57600080fd5b506102d560048036038101906102d09190614547565b610aa0565b6040516102e2919061469a565b60405180910390f35b3480156102f757600080fd5b50610312600480360381019061030d91906146e1565b610ae6565b005b34801561032057600080fd5b5061033b60048036038101906103369190614856565b610bfe565b005b34801561034957600080fd5b50610364600480360381019061035f9190614547565b610f30565b604051610371919061469a565b60405180910390f35b34801561038657600080fd5b506103a1600480360381019061039c919061489f565b610f63565b005b3480156103af57600080fd5b506103ca60048036038101906103c591906148f2565b610fc3565b6040516103dd9796959493929190614940565b60405180910390f35b3480156103f257600080fd5b506103fb6110ba565b6040516104089190614b65565b60405180910390f35b34801561041d57600080fd5b50610438600480360381019061043391906148f2565b611296565b6040516104459190614583565b60405180910390f35b34801561045a57600080fd5b506104756004803603810190610470919061489f565b6112ea565b005b34801561048357600080fd5b5061049e600480360381019061049991906148f2565b61130a565b6040516104ab9190614583565b60405180910390f35b3480156104c057600080fd5b506104db60048036038101906104d69190614547565b611322565b6040516104ec959493929190614b87565b60405180910390f35b34801561050157600080fd5b5061051c600480360381019061051791906148f2565b61140d565b60405161052991906144f6565b60405180910390f35b34801561053e57600080fd5b5061055960048036038101906105549190614547565b611484565b604051610566919061469a565b60405180910390f35b34801561057b57600080fd5b5061059660048036038101906105919190614547565b61150b565b005b3480156105a457600080fd5b506105bf60048036038101906105ba91906148f2565b6115c8565b6040516105cc9190614583565b60405180910390f35b3480156105e157600080fd5b506105ea611680565b6040516105f79190614637565b60405180910390f35b61061a60048036038101906106159190614be1565b611712565b005b34801561062857600080fd5b50610643600480360381019061063e9190614547565b611fe8565b604051610650919061469a565b60405180910390f35b34801561066557600080fd5b50610680600480360381019061067b9190614c4d565b61201b565b005b34801561068e57600080fd5b506106a960048036038101906106a49190614d2e565b612031565b005b3480156106b757600080fd5b506106c0612093565b6040516106cd9190614637565b60405180910390f35b3480156106e257600080fd5b506106eb61216b565b6040516106f89190614b65565b60405180910390f35b34801561070d57600080fd5b5061072860048036038101906107239190614547565b61248c565b6040516107359190614637565b60405180910390f35b34801561074a57600080fd5b5061076560048036038101906107609190614547565b61259f565b005b34801561077357600080fd5b5061078e60048036038101906107899190614856565b6125d7565b60405161079b9190614583565b60405180910390f35b3480156107b057600080fd5b506107cb60048036038101906107c691906148f2565b6126b0565b6040516107d891906144f6565b60405180910390f35b3480156107ed57600080fd5b50610808600480360381019061080391906148f2565b6127a1565b6040516108159190614583565b60405180910390f35b34801561082a57600080fd5b5061084560048036038101906108409190614be1565b6127f5565b60405161085291906144f6565b60405180910390f35b34801561086757600080fd5b50610882600480360381019061087d91906148f2565b612889565b60405161088f9190614e60565b60405180910390f35b3480156108a457600080fd5b506108bf60048036038101906108ba9190614e82565b61298f565b005b3480156108cd57600080fd5b506108e860048036038101906108e39190614547565b612c3b565b6040516108f591906144f6565b60405180910390f35b61091860048036038101906109139190614ede565b612c86565b005b60007f80ac58cd000000000000000000000000000000000000000000000000000000007bffffffffffffffffffffffffffffffffffffffffffffffffffffffff1916827bffffffffffffffffffffffffffffffffffffffffffffffffffffffff191614806109e557507f5b5e139f000000000000000000000000000000000000000000000000000000007bffffffffffffffffffffffffffffffffffffffffffffffffffffffff1916827bffffffffffffffffffffffffffffffffffffffffffffffffffffffff1916145b806109f557506109f4826131a0565b5b9050919050565b6000610a078261320a565b9050919050565b606060008054610a1d90614f4d565b80601f0160208091040260200160405190810160405280929190818152602001828054610a4990614f4d565b8015610a965780601f10610a6b57610100808354040283529160200191610a96565b820191906000526020600020905b815481529060010190602001808311610a7957829003601f168201915b5050505050905090565b6000610aab82613244565b6004600083815260200190815260200160002060009054906101000a900473ffffffffffffffffffffffffffffffffffffffff169050919050565b6000610af182611484565b90508073ffffffffffffffffffffffffffffffffffffffff168373ffffffffffffffffffffffffffffffffffffffff161415610b62576040517f08c379a0000000000000000000000000000000000000000000000000000000008152600401610b5990614ff1565b60405180910390fd5b8073ffffffffffffffffffffffffffffffffffffffff16610b8161328f565b73ffffffffffffffffffffffffffffffffffffffff161480610bb05750610baf81610baa61328f565b6127f5565b5b610bef576040517f08c379a0000000000000000000000000000000000000000000000000000000008152600401610be690615083565b60405180910390fd5b610bf98383613297565b505050565b6001610c09336115c8565b1015610c41576040517fe0149f6400000000000000000000000000000000000000000000000000000000815260040160405180910390fd5b600181511015610c7d576040517fe0149f6400000000000000000000000000000000000000000000000000000000815260040160405180910390fd5b60086000815480929190610c90906150d2565b919050555060006040518060a001604052806008548152602001838152602001600081526020013373ffffffffffffffffffffffffffffffffffffffff1681526020016000151581525090506040518060a001604052806008548152602001838152602001600081526020013373ffffffffffffffffffffffffffffffffffffffff16815260200160001515815250600960006008548152602001908152602001600020600082015181600001556020820151816001019080519060200190610d5a929190614279565b506040820151816002015560608201518160030160006101000a81548173ffffffffffffffffffffffffffffffffffffffff021916908373ffffffffffffffffffffffffffffffffffffffff16021790555060808201518160030160146101000a81548160ff021916908315150217905550905050600e819080600181540180825580915050600190039060005260206000209060040201600090919091909150600082015181600001556020820151816001019080519060200190610e21929190614279565b506040820151816002015560608201518160030160006101000a81548173ffffffffffffffffffffffffffffffffffffffff021916908373ffffffffffffffffffffffffffffffffffffffff16021790555060808201518160030160146101000a81548160ff021916908315150217905550505033600c6000600854815260200190815260200160002060006101000a81548173ffffffffffffffffffffffffffffffffffffffff021916908373ffffffffffffffffffffffffffffffffffffffff1602179055507fa069f13470b7d7b9458b0ab6c598e9f53c23db1a88c33157a1af53c63ca1a2e0600854836000336000604051610f24959493929190615160565b60405180910390a15050565b600c6020528060005260406000206000915054906101000a900473ffffffffffffffffffffffffffffffffffffffff1681565b610f74610f6e61328f565b82613350565b610fb3576040517f08c379a0000000000000000000000000000000000000000000000000000000008152600401610faa9061522c565b60405180910390fd5b610fbe8383836133e5565b505050565b600b6020528060005260406000206000915090508060000154908060010160009054906101000a900473ffffffffffffffffffffffffffffffffffffffff169080600401805461101290614f4d565b80601f016020809104026020016040519081016040528092919081815260200182805461103e90614f4d565b801561108b5780601f106110605761010080835404028352916020019161108b565b820191906000526020600020905b81548152906001019060200180831161106e57829003601f168201915b5050505050908060050160009054906101000a900460ff16908060060154908060070154908060080154905087565b606060085467ffffffffffffffff8111156110d8576110d761472b565b5b60405190808252806020026020018201604052801561111157816020015b6110fe6142ff565b8152602001906001900390816110f65790505b50905060005b81518110156112925760096000600183611131919061524c565b81526020019081526020016000206040518060a00160405290816000820154815260200160018201805461116490614f4d565b80601f016020809104026020016040519081016040528092919081815260200182805461119090614f4d565b80156111dd5780601f106111b2576101008083540402835291602001916111dd565b820191906000526020600020905b8154815290600101906020018083116111c057829003601f168201915b50505050508152602001600282015481526020016003820160009054906101000a900473ffffffffffffffffffffffffffffffffffffffff1673ffffffffffffffffffffffffffffffffffffffff1673ffffffffffffffffffffffffffffffffffffffff1681526020016003820160149054906101000a900460ff161515151581525050828281518110611274576112736152a2565b5b6020026020010181905250808061128a906150d2565b915050611117565b5090565b600080600b60008473ffffffffffffffffffffffffffffffffffffffff1673ffffffffffffffffffffffffffffffffffffffff16815260200190815260200160002090508060030180549050915050919050565b61130583838360405180602001604052806000815250612031565b505050565b600a6020528060005260406000206000915090505481565b600960205280600052604060002060009150905080600001549080600101805461134b90614f4d565b80601f016020809104026020016040519081016040528092919081815260200182805461137790614f4d565b80156113c45780601f10611399576101008083540402835291602001916113c4565b820191906000526020600020905b8154815290600101906020018083116113a757829003601f168201915b5050505050908060020154908060030160009054906101000a900473ffffffffffffffffffffffffffffffffffffffff16908060030160149054906101000a900460ff16905085565b600080600b60008473ffffffffffffffffffffffffffffffffffffffff1673ffffffffffffffffffffffffffffffffffffffff1681526020019081526020016000209050600115158160050160009054906101000a900460ff161515141561147957600191505061147f565b60009150505b919050565b600080611490836136df565b9050600073ffffffffffffffffffffffffffffffffffffffff168173ffffffffffffffffffffffffffffffffffffffff161415611502576040517f08c379a00000000000000000000000000000000000000000000000000000000081526004016114f99061531d565b60405180910390fd5b80915050919050565b3373ffffffffffffffffffffffffffffffffffffffff1661152b82611484565b73ffffffffffffffffffffffffffffffffffffffff1614611581576040517f08c379a000000000000000000000000000000000000000000000000000000000815260040161157890615389565b60405180910390fd5b80600a60003373ffffffffffffffffffffffffffffffffffffffff1673ffffffffffffffffffffffffffffffffffffffff1681526020019081526020016000208190555050565b60008073ffffffffffffffffffffffffffffffffffffffff168273ffffffffffffffffffffffffffffffffffffffff161415611639576040517f08c379a00000000000000000000000000000000000000000000000000000000081526004016116309061541b565b60405180910390fd5b600360008373ffffffffffffffffffffffffffffffffffffffff1673ffffffffffffffffffffffffffffffffffffffff168152602001908152602001600020549050919050565b60606001805461168f90614f4d565b80601f01602080910402602001604051908101604052809291908181526020018280546116bb90614f4d565b80156117085780601f106116dd57610100808354040283529160200191611708565b820191906000526020600020905b8154815290600101906020018083116116eb57829003601f168201915b5050505050905090565b6000600b60008473ffffffffffffffffffffffffffffffffffffffff1673ffffffffffffffffffffffffffffffffffffffff16815260200190815260200160002090506000600b60003373ffffffffffffffffffffffffffffffffffffffff1673ffffffffffffffffffffffffffffffffffffffff168152602001908152602001600020905060006305f5e10083600601546117ae919061543b565b905060006117bb866126b0565b905060006117c88761140d565b90508673ffffffffffffffffffffffffffffffffffffffff163373ffffffffffffffffffffffffffffffffffffffff161415611830576040517f2057bbc900000000000000000000000000000000000000000000000000000000815260040160405180910390fd5b60011515821515141561186f576040517f98575ed400000000000000000000000000000000000000000000000000000000815260040160405180910390fd5b600115158115151415611e3357826118863461320a565b10156118be576040517faa6e6a6900000000000000000000000000000000000000000000000000000000815260040160405180910390fd5b60008773ffffffffffffffffffffffffffffffffffffffff16346040516118e4906154c6565b60006040518083038185875af1925050503d8060008114611921576040519150601f19603f3d011682016040523d82523d6000602084013e611926565b606091505b5050905080611961576040517faa6e6a6900000000000000000000000000000000000000000000000000000000815260040160405180910390fd5b60076000815480929190611974906150d2565b919050555085600201856000015490806001815401808255809150506001900390600052602060002001600090919091909150558460030186600001549080600181540180825580915050600190039060005260206000200160009091909190915055348660070160008282546119eb919061524c565b9250508190555085600b60008a73ffffffffffffffffffffffffffffffffffffffff1673ffffffffffffffffffffffffffffffffffffffff168152602001908152602001600020600082015481600001556001820160009054906101000a900473ffffffffffffffffffffffffffffffffffffffff168160010160006101000a81548173ffffffffffffffffffffffffffffffffffffffff021916908373ffffffffffffffffffffffffffffffffffffffff1602179055506002820181600201908054611ab9929190614346565b506003820181600301908054611ad0929190614346565b506004820181600401908054611ae590614f4d565b611af0929190614398565b506005820160009054906101000a900460ff168160050160006101000a81548160ff021916908315150217905550600682015481600601556007820154816007015560088201548160080155905050611b4b3360075461371c565b611be3600754876004018054611b6090614f4d565b80601f0160208091040260200160405190810160405280929190818152602001828054611b8c90614f4d565b8015611bd95780601f10611bae57610100808354040283529160200191611bd9565b820191906000526020600020905b815481529060010190602001808311611bbc57829003601f168201915b505050505061373a565b60008790508073ffffffffffffffffffffffffffffffffffffffff166340c10f1933670de0b6b3a76400006040518363ffffffff1660e01b8152600401611c2b929190615516565b600060405180830381600087803b158015611c4557600080fd5b505af1158015611c59573d6000803e3d6000fd5b5050505084866008016000828254611c71919061524c565b92505081905550600060405180606001604052806007548152602001896004018054611c9c90614f4d565b80601f0160208091040260200160405190810160405280929190818152602001828054611cc890614f4d565b8015611d155780601f10611cea57610100808354040283529160200191611d15565b820191906000526020600020905b815481529060010190602001808311611cf857829003601f168201915b505050505081526020013373ffffffffffffffffffffffffffffffffffffffff168152509050600f819080600181540180825580915050600190039060005260206000209060030201600090919091909150600082015181600001556020820151816001019080519060200190611d8d929190614279565b5060408201518160020160006101000a81548173ffffffffffffffffffffffffffffffffffffffff021916908373ffffffffffffffffffffffffffffffffffffffff160217905550505033600d6000600754815260200190815260200160002060006101000a81548173ffffffffffffffffffffffffffffffffffffffff021916908373ffffffffffffffffffffffffffffffffffffffff160217905550505050611fdf565b8460020184600001549080600181540180825580915050600190039060005260206000200160009091909190915055836003018560000154908060018154018082558091505060019003906000526020600020016000909190919091505584600b60008973ffffffffffffffffffffffffffffffffffffffff1673ffffffffffffffffffffffffffffffffffffffff168152602001908152602001600020600082015481600001556001820160009054906101000a900473ffffffffffffffffffffffffffffffffffffffff168160010160006101000a81548173ffffffffffffffffffffffffffffffffffffffff021916908373ffffffffffffffffffffffffffffffffffffffff1602179055506002820181600201908054611f58929190614346565b506003820181600301908054611f6f929190614346565b506004820181600401908054611f8490614f4d565b611f8f929190614398565b506005820160009054906101000a900460ff168160050160006101000a81548160ff0219169083151502179055506006820154816006015560078201548160070155600882015481600801559050505b50505050505050565b600d6020528060005260406000206000915054906101000a900473ffffffffffffffffffffffffffffffffffffffff1681565b61202d61202661328f565b83836137ae565b5050565b61204261203c61328f565b83613350565b612081576040517f08c379a00000000000000000000000000000000000000000000000000000000081526004016120789061522c565b60405180910390fd5b61208d8484848461391b565b50505050565b60606000600b60003373ffffffffffffffffffffffffffffffffffffffff1673ffffffffffffffffffffffffffffffffffffffff16815260200190815260200160002090508060040180546120e790614f4d565b80601f016020809104026020016040519081016040528092919081815260200182805461211390614f4d565b80156121605780601f1061213557610100808354040283529160200191612160565b820191906000526020600020905b81548152906001019060200180831161214357829003601f168201915b505050505091505090565b60606000600e8054905067ffffffffffffffff81111561218e5761218d61472b565b5b6040519080825280602002602001820160405280156121c757816020015b6121b46142ff565b8152602001906001900390816121ac5790505b5090506000805b600e805490508110156123d2573373ffffffffffffffffffffffffffffffffffffffff16600c6000600184612203919061524c565b815260200190815260200160002060009054906101000a900473ffffffffffffffffffffffffffffffffffffffff1673ffffffffffffffffffffffffffffffffffffffff1614156123bf57600e8181548110612262576122616152a2565b5b90600052602060002090600402016040518060a00160405290816000820154815260200160018201805461229590614f4d565b80601f01602080910402602001604051908101604052809291908181526020018280546122c190614f4d565b801561230e5780601f106122e35761010080835404028352916020019161230e565b820191906000526020600020905b8154815290600101906020018083116122f157829003601f168201915b50505050508152602001600282015481526020016003820160009054906101000a900473ffffffffffffffffffffffffffffffffffffffff1673ffffffffffffffffffffffffffffffffffffffff1673ffffffffffffffffffffffffffffffffffffffff1681526020016003820160149054906101000a900460ff1615151515815250508383815181106123a5576123a46152a2565b5b602002602001018190525081806123bb906150d2565b9250505b80806123ca906150d2565b9150506121ce565b5060008167ffffffffffffffff8111156123ef576123ee61472b565b5b60405190808252806020026020018201604052801561242857816020015b6124156142ff565b81526020019060019003908161240d5790505b50905060005b8281101561248257838181518110612449576124486152a2565b5b6020026020010151828281518110612464576124636152a2565b5b6020026020010181905250808061247a906150d2565b91505061242e565b5080935050505090565b606061249782613244565b60006006600084815260200190815260200160002080546124b790614f4d565b80601f01602080910402602001604051908101604052809291908181526020018280546124e390614f4d565b80156125305780601f1061250557610100808354040283529160200191612530565b820191906000526020600020905b81548152906001019060200180831161251357829003601f168201915b505050505090506000612541613977565b905060008151141561255757819250505061259a565b60008251111561258c57808260405160200161257492919061557b565b6040516020818303038152906040529250505061259a565b6125958461398e565b925050505b919050565b600060096000838152602001908152602001600020905060018160030160146101000a81548160ff0219169083151502179055505050565b6000600760008154809291906125ec906150d2565b91905055506125fd3360075461371c565b6126096007548361373a565b6000600b60003373ffffffffffffffffffffffffffffffffffffffff1673ffffffffffffffffffffffffffffffffffffffff16815260200190815260200160002090506007548160000181905550338160010160006101000a81548173ffffffffffffffffffffffffffffffffffffffff021916908373ffffffffffffffffffffffffffffffffffffffff1602179055506126a560075461150b565b600754915050919050565b600080600b60008473ffffffffffffffffffffffffffffffffffffffff1673ffffffffffffffffffffffffffffffffffffffff16815260200190815260200160002090506000600b60003373ffffffffffffffffffffffffffffffffffffffff1673ffffffffffffffffffffffffffffffffffffffff168152602001908152602001600020905060005b8260020180549050811015612794578160000154836002018281548110612764576127636152a2565b5b90600052602060002001541415612781576001935050505061279c565b808061278c906150d2565b91505061273a565b506000925050505b919050565b600080600b60008473ffffffffffffffffffffffffffffffffffffffff1673ffffffffffffffffffffffffffffffffffffffff16815260200190815260200160002090508060020180549050915050919050565b6000600560008473ffffffffffffffffffffffffffffffffffffffff1673ffffffffffffffffffffffffffffffffffffffff16815260200190815260200160002060008373ffffffffffffffffffffffffffffffffffffffff1673ffffffffffffffffffffffffffffffffffffffff16815260200190815260200160002060009054906101000a900460ff16905092915050565b6060612894826115c8565b67ffffffffffffffff8111156128ad576128ac61472b565b5b6040519080825280602002602001820160405280156128db5781602001602082028036833780820191505090505b509050600080600754905060005b81811015612987578473ffffffffffffffffffffffffffffffffffffffff1661291d600183612918919061524c565b611484565b73ffffffffffffffffffffffffffffffffffffffff16141561297457600181612946919061524c565b848481518110612959576129586152a2565b5b6020026020010181815250508280612970906150d2565b9350505b808061297f906150d2565b9150506128e9565b505050919050565b6000600b60003373ffffffffffffffffffffffffffffffffffffffff1673ffffffffffffffffffffffffffffffffffffffff1681526020019081526020016000209050600015158160050160009054906101000a900460ff16151514612a21576040517f2b7a0fe900000000000000000000000000000000000000000000000000000000815260040160405180910390fd5b3373ffffffffffffffffffffffffffffffffffffffff168160010160009054906101000a900473ffffffffffffffffffffffffffffffffffffffff1673ffffffffffffffffffffffffffffffffffffffff1614612aaa576040517f82b4290000000000000000000000000000000000000000000000000000000000815260040160405180910390fd5b60018160050160006101000a81548160ff02191690831515021790555082816006018190555081816004019080519060200190612ae8929190614279565b5080600b60003373ffffffffffffffffffffffffffffffffffffffff1673ffffffffffffffffffffffffffffffffffffffff168152602001908152602001600020600082015481600001556001820160009054906101000a900473ffffffffffffffffffffffffffffffffffffffff168160010160006101000a81548173ffffffffffffffffffffffffffffffffffffffff021916908373ffffffffffffffffffffffffffffffffffffffff1602179055506002820181600201908054612bb0929190614346565b506003820181600301908054612bc7929190614346565b506004820181600401908054612bdc90614f4d565b612be7929190614398565b506005820160009054906101000a900460ff168160050160006101000a81548160ff021916908315150217905550600682015481600601556007820154816007015560088201548160080155905050505050565b600080600960008481526020019081526020016000209050600115158160030160149054906101000a900460ff1615151415612c7b576001915050612c81565b60009150505b919050565b600082108015612c9857506008548211155b15612ccf576040517f8b61fdab00000000000000000000000000000000000000000000000000000000815260040160405180910390fd5b6000612cda83612c3b565b90506001151581151514612d1a576040517f50cbb21500000000000000000000000000000000000000000000000000000000815260040160405180910390fd5b801561319b576000600960008581526020019081526020016000206040518060a001604052908160008201548152602001600182018054612d5a90614f4d565b80601f0160208091040260200160405190810160405280929190818152602001828054612d8690614f4d565b8015612dd35780601f10612da857610100808354040283529160200191612dd3565b820191906000526020600020905b815481529060010190602001808311612db657829003601f168201915b50505050508152602001600282015481526020016003820160009054906101000a900473ffffffffffffffffffffffffffffffffffffffff1673ffffffffffffffffffffffffffffffffffffffff1673ffffffffffffffffffffffffffffffffffffffff1681526020016003820160149054906101000a900460ff16151515158152505090503373ffffffffffffffffffffffffffffffffffffffff16816060015173ffffffffffffffffffffffffffffffffffffffff161415612ec3576040517f76999ef300000000000000000000000000000000000000000000000000000000815260040160405180910390fd5b6000341015612efe576040517f26a81e1a00000000000000000000000000000000000000000000000000000000815260040160405180910390fd5b6000816060015173ffffffffffffffffffffffffffffffffffffffff1634604051612f28906154c6565b60006040518083038185875af1925050503d8060008114612f65576040519150601f19603f3d011682016040523d82523d6000602084013e612f6a565b606091505b505090506001151581151514612fac576040517faa6e6a6900000000000000000000000000000000000000000000000000000000815260040160405180910390fd5b3482604001818151612fbe919061524c565b915081815250508160096000878152602001908152602001600020600082015181600001556020820151816001019080519060200190612fff929190614279565b506040820151816002015560608201518160030160006101000a81548173ffffffffffffffffffffffffffffffffffffffff021916908373ffffffffffffffffffffffffffffffffffffffff16021790555060808201518160030160146101000a81548160ff02191690831515021790555090505060008490508073ffffffffffffffffffffffffffffffffffffffff166340c10f1933670de0b6b3a76400006040518363ffffffff1660e01b81526004016130bc929190615516565b600060405180830381600087803b1580156130d657600080fd5b505af11580156130ea573d6000803e3d6000fd5b505050506000600b60003373ffffffffffffffffffffffffffffffffffffffff1673ffffffffffffffffffffffffffffffffffffffff16815260200190815260200160002090506001816008016000828254613146919061524c565b925050819055507f7fcfa126b080b9cd43e8eb0f3d8fc2459d3250191cc02456ef510543393cef358785602001518660400151876060015160405161318e949392919061559f565b60405180910390a1505050505b505050565b60007f01ffc9a7000000000000000000000000000000000000000000000000000000007bffffffffffffffffffffffffffffffffffffffffffffffffffffffff1916827bffffffffffffffffffffffffffffffffffffffffffffffffffffffff1916149050919050565b6000806132156139f6565b90506000670de0b6b3a7640000848361322e919061543b565b613238919061561a565b90508092505050919050565b61324d81613aae565b61328c576040517f08c379a00000000000000000000000000000000000000000000000000000000081526004016132839061531d565b60405180910390fd5b50565b600033905090565b816004600083815260200190815260200160002060006101000a81548173ffffffffffffffffffffffffffffffffffffffff021916908373ffffffffffffffffffffffffffffffffffffffff160217905550808273ffffffffffffffffffffffffffffffffffffffff1661330a83611484565b73ffffffffffffffffffffffffffffffffffffffff167f8c5be1e5ebec7d5bd14f71427d1e84f3dd0314c0f7b2291e5b200ac8c7c3b92560405160405180910390a45050565b60008061335c83611484565b90508073ffffffffffffffffffffffffffffffffffffffff168473ffffffffffffffffffffffffffffffffffffffff16148061339e575061339d81856127f5565b5b806133dc57508373ffffffffffffffffffffffffffffffffffffffff166133c484610aa0565b73ffffffffffffffffffffffffffffffffffffffff16145b91505092915050565b8273ffffffffffffffffffffffffffffffffffffffff1661340582611484565b73ffffffffffffffffffffffffffffffffffffffff161461345b576040517f08c379a0000000000000000000000000000000000000000000000000000000008152600401613452906156bd565b60405180910390fd5b600073ffffffffffffffffffffffffffffffffffffffff168273ffffffffffffffffffffffffffffffffffffffff1614156134cb576040517f08c379a00000000000000000000000000000000000000000000000000000000081526004016134c29061574f565b60405180910390fd5b6134d88383836001613aef565b8273ffffffffffffffffffffffffffffffffffffffff166134f882611484565b73ffffffffffffffffffffffffffffffffffffffff161461354e576040517f08c379a0000000000000000000000000000000000000000000000000000000008152600401613545906156bd565b60405180910390fd5b6004600082815260200190815260200160002060006101000a81549073ffffffffffffffffffffffffffffffffffffffff02191690556001600360008573ffffffffffffffffffffffffffffffffffffffff1673ffffffffffffffffffffffffffffffffffffffff168152602001908152602001600020600082825403925050819055506001600360008473ffffffffffffffffffffffffffffffffffffffff1673ffffffffffffffffffffffffffffffffffffffff16815260200190815260200160002060008282540192505081905550816002600083815260200190815260200160002060006101000a81548173ffffffffffffffffffffffffffffffffffffffff021916908373ffffffffffffffffffffffffffffffffffffffff160217905550808273ffffffffffffffffffffffffffffffffffffffff168473ffffffffffffffffffffffffffffffffffffffff167fddf252ad1be2c89b69c2b068fc378daa952ba7f163c4a11628f55a4df523b3ef60405160405180910390a46136da8383836001613c15565b505050565b60006002600083815260200190815260200160002060009054906101000a900473ffffffffffffffffffffffffffffffffffffffff169050919050565b613736828260405180602001604052806000815250613c1b565b5050565b61374382613aae565b613782576040517f08c379a0000000000000000000000000000000000000000000000000000000008152600401613779906157e1565b60405180910390fd5b806006600084815260200190815260200160002090805190602001906137a9929190614279565b505050565b8173ffffffffffffffffffffffffffffffffffffffff168373ffffffffffffffffffffffffffffffffffffffff16141561381d576040517f08c379a00000000000000000000000000000000000000000000000000000000081526004016138149061584d565b60405180910390fd5b80600560008573ffffffffffffffffffffffffffffffffffffffff1673ffffffffffffffffffffffffffffffffffffffff16815260200190815260200160002060008473ffffffffffffffffffffffffffffffffffffffff1673ffffffffffffffffffffffffffffffffffffffff16815260200190815260200160002060006101000a81548160ff0219169083151502179055508173ffffffffffffffffffffffffffffffffffffffff168373ffffffffffffffffffffffffffffffffffffffff167f17307eab39ab6107e8899845ad3d59bd9653f200f220920489ca2b5937696c318360405161390e91906144f6565b60405180910390a3505050565b6139268484846133e5565b61393284848484613c76565b613971576040517f08c379a0000000000000000000000000000000000000000000000000000000008152600401613968906158df565b60405180910390fd5b50505050565b606060405180602001604052806000815250905090565b606061399982613244565b60006139a3613977565b905060008151116139c357604051806020016040528060008152506139ee565b806139cd84613e0d565b6040516020016139de92919061557b565b6040516020818303038152906040525b915050919050565b60008073d0d5e3db44de05e9f294bb0a3beeaf030de24ada905060008173ffffffffffffffffffffffffffffffffffffffff1663feaf968c6040518163ffffffff1660e01b815260040160a06040518083038186803b158015613a5857600080fd5b505afa158015613a6c573d6000803e3d6000fd5b505050506040513d601f19601f82011682018060405250810190613a90919061598c565b5050509150506402540be40081613aa79190615a07565b9250505090565b60008073ffffffffffffffffffffffffffffffffffffffff16613ad0836136df565b73ffffffffffffffffffffffffffffffffffffffff1614159050919050565b6001811115613c0f57600073ffffffffffffffffffffffffffffffffffffffff168473ffffffffffffffffffffffffffffffffffffffff1614613b835780600360008673ffffffffffffffffffffffffffffffffffffffff1673ffffffffffffffffffffffffffffffffffffffff1681526020019081526020016000206000828254613b7b9190615b1e565b925050819055505b600073ffffffffffffffffffffffffffffffffffffffff168373ffffffffffffffffffffffffffffffffffffffff1614613c0e5780600360008573ffffffffffffffffffffffffffffffffffffffff1673ffffffffffffffffffffffffffffffffffffffff1681526020019081526020016000206000828254613c06919061524c565b925050819055505b5b50505050565b50505050565b613c258383613ee5565b613c326000848484613c76565b613c71576040517f08c379a0000000000000000000000000000000000000000000000000000000008152600401613c68906158df565b60405180910390fd5b505050565b6000613c978473ffffffffffffffffffffffffffffffffffffffff16614103565b15613e00578373ffffffffffffffffffffffffffffffffffffffff1663150b7a02613cc061328f565b8786866040518563ffffffff1660e01b8152600401613ce29493929190615ba7565b602060405180830381600087803b158015613cfc57600080fd5b505af1925050508015613d2d57506040513d601f19601f82011682018060405250810190613d2a9190615c08565b60015b613db0573d8060008114613d5d576040519150601f19603f3d011682016040523d82523d6000602084013e613d62565b606091505b50600081511415613da8576040517f08c379a0000000000000000000000000000000000000000000000000000000008152600401613d9f906158df565b60405180910390fd5b805181602001fd5b63150b7a0260e01b7bffffffffffffffffffffffffffffffffffffffffffffffffffffffff1916817bffffffffffffffffffffffffffffffffffffffffffffffffffffffff191614915050613e05565b600190505b949350505050565b606060006001613e1c84614126565b01905060008167ffffffffffffffff811115613e3b57613e3a61472b565b5b6040519080825280601f01601f191660200182016040528015613e6d5781602001600182028036833780820191505090505b509050600082602001820190505b600115613eda578080600190039150507f3031323334353637383961626364656600000000000000000000000000000000600a86061a8153600a8581613ec457613ec36155eb565b5b0494506000851415613ed557613eda565b613e7b565b819350505050919050565b600073ffffffffffffffffffffffffffffffffffffffff168273ffffffffffffffffffffffffffffffffffffffff161415613f55576040517f08c379a0000000000000000000000000000000000000000000000000000000008152600401613f4c90615c81565b60405180910390fd5b613f5e81613aae565b15613f9e576040517f08c379a0000000000000000000000000000000000000000000000000000000008152600401613f9590615ced565b60405180910390fd5b613fac600083836001613aef565b613fb581613aae565b15613ff5576040517f08c379a0000000000000000000000000000000000000000000000000000000008152600401613fec90615ced565b60405180910390fd5b6001600360008473ffffffffffffffffffffffffffffffffffffffff1673ffffffffffffffffffffffffffffffffffffffff16815260200190815260200160002060008282540192505081905550816002600083815260200190815260200160002060006101000a81548173ffffffffffffffffffffffffffffffffffffffff021916908373ffffffffffffffffffffffffffffffffffffffff160217905550808273ffffffffffffffffffffffffffffffffffffffff16600073ffffffffffffffffffffffffffffffffffffffff167fddf252ad1be2c89b69c2b068fc378daa952ba7f163c4a11628f55a4df523b3ef60405160405180910390a46140ff600083836001613c15565b5050565b6000808273ffffffffffffffffffffffffffffffffffffffff163b119050919050565b600080600090507a184f03e93ff9f4daa797ed6e38ed64bf6a1f0100000000000000008310614184577a184f03e93ff9f4daa797ed6e38ed64bf6a1f010000000000000000838161417a576141796155eb565b5b0492506040810190505b6d04ee2d6d415b85acef810000000083106141c1576d04ee2d6d415b85acef810000000083816141b7576141b66155eb565b5b0492506020810190505b662386f26fc1000083106141f057662386f26fc1000083816141e6576141e56155eb565b5b0492506010810190505b6305f5e1008310614219576305f5e100838161420f5761420e6155eb565b5b0492506008810190505b612710831061423e576127108381614234576142336155eb565b5b0492506004810190505b606483106142615760648381614257576142566155eb565b5b0492506002810190505b600a8310614270576001810190505b80915050919050565b82805461428590614f4d565b90600052602060002090601f0160209004810192826142a757600085556142ee565b82601f106142c057805160ff19168380011785556142ee565b828001600101855582156142ee579182015b828111156142ed5782518255916020019190600101906142d2565b5b5090506142fb9190614425565b5090565b6040518060a00160405280600081526020016060815260200160008152602001600073ffffffffffffffffffffffffffffffffffffffff1681526020016000151581525090565b8280548282559060005260206000209081019282156143875760005260206000209182015b8281111561438657825482559160010191906001019061436b565b5b5090506143949190614425565b5090565b8280546143a490614f4d565b90600052602060002090601f0160209004810192826143c65760008555614414565b82601f106143d75780548555614414565b8280016001018555821561441457600052602060002091601f016020900482015b828111156144135782548255916001019190600101906143f8565b5b5090506144219190614425565b5090565b5b8082111561443e576000816000905550600101614426565b5090565b6000604051905090565b600080fd5b600080fd5b60007fffffffff0000000000000000000000000000000000000000000000000000000082169050919050565b61448b81614456565b811461449657600080fd5b50565b6000813590506144a881614482565b92915050565b6000602082840312156144c4576144c361444c565b5b60006144d284828501614499565b91505092915050565b60008115159050919050565b6144f0816144db565b82525050565b600060208201905061450b60008301846144e7565b92915050565b6000819050919050565b61452481614511565b811461452f57600080fd5b50565b6000813590506145418161451b565b92915050565b60006020828403121561455d5761455c61444c565b5b600061456b84828501614532565b91505092915050565b61457d81614511565b82525050565b60006020820190506145986000830184614574565b92915050565b600081519050919050565b600082825260208201905092915050565b60005b838110156145d85780820151818401526020810190506145bd565b838111156145e7576000848401525b50505050565b6000601f19601f8301169050919050565b60006146098261459e565b61461381856145a9565b93506146238185602086016145ba565b61462c816145ed565b840191505092915050565b6000602082019050818103600083015261465181846145fe565b905092915050565b600073ffffffffffffffffffffffffffffffffffffffff82169050919050565b600061468482614659565b9050919050565b61469481614679565b82525050565b60006020820190506146af600083018461468b565b92915050565b6146be81614679565b81146146c957600080fd5b50565b6000813590506146db816146b5565b92915050565b600080604083850312156146f8576146f761444c565b5b6000614706858286016146cc565b925050602061471785828601614532565b9150509250929050565b600080fd5b600080fd5b7f4e487b7100000000000000000000000000000000000000000000000000000000600052604160045260246000fd5b614763826145ed565b810181811067ffffffffffffffff821117156147825761478161472b565b5b80604052505050565b6000614795614442565b90506147a1828261475a565b919050565b600067ffffffffffffffff8211156147c1576147c061472b565b5b6147ca826145ed565b9050602081019050919050565b82818337600083830152505050565b60006147f96147f4846147a6565b61478b565b90508281526020810184848401111561481557614814614726565b5b6148208482856147d7565b509392505050565b600082601f83011261483d5761483c614721565b5b813561484d8482602086016147e6565b91505092915050565b60006020828403121561486c5761486b61444c565b5b600082013567ffffffffffffffff81111561488a57614889614451565b5b61489684828501614828565b91505092915050565b6000806000606084860312156148b8576148b761444c565b5b60006148c6868287016146cc565b93505060206148d7868287016146cc565b92505060406148e886828701614532565b9150509250925092565b6000602082840312156149085761490761444c565b5b6000614916848285016146cc565b91505092915050565b600061492a82614659565b9050919050565b61493a8161491f565b82525050565b600060e082019050614955600083018a614574565b6149626020830189614931565b818103604083015261497481886145fe565b905061498360608301876144e7565b6149906080830186614574565b61499d60a0830185614574565b6149aa60c0830184614574565b98975050505050505050565b600081519050919050565b600082825260208201905092915050565b6000819050602082019050919050565b6149eb81614511565b82525050565b600082825260208201905092915050565b6000614a0d8261459e565b614a1781856149f1565b9350614a278185602086016145ba565b614a30816145ed565b840191505092915050565b614a448161491f565b82525050565b614a53816144db565b82525050565b600060a083016000830151614a7160008601826149e2565b5060208301518482036020860152614a898282614a02565b9150506040830151614a9e60408601826149e2565b506060830151614ab16060860182614a3b565b506080830151614ac46080860182614a4a565b508091505092915050565b6000614adb8383614a59565b905092915050565b6000602082019050919050565b6000614afb826149b6565b614b0581856149c1565b935083602082028501614b17856149d2565b8060005b85811015614b535784840389528151614b348582614acf565b9450614b3f83614ae3565b925060208a01995050600181019050614b1b565b50829750879550505050505092915050565b60006020820190508181036000830152614b7f8184614af0565b905092915050565b600060a082019050614b9c6000830188614574565b8181036020830152614bae81876145fe565b9050614bbd6040830186614574565b614bca6060830185614931565b614bd760808301846144e7565b9695505050505050565b60008060408385031215614bf857614bf761444c565b5b6000614c06858286016146cc565b9250506020614c17858286016146cc565b9150509250929050565b614c2a816144db565b8114614c3557600080fd5b50565b600081359050614c4781614c21565b92915050565b60008060408385031215614c6457614c6361444c565b5b6000614c72858286016146cc565b9250506020614c8385828601614c38565b9150509250929050565b600067ffffffffffffffff821115614ca857614ca761472b565b5b614cb1826145ed565b9050602081019050919050565b6000614cd1614ccc84614c8d565b61478b565b905082815260208101848484011115614ced57614cec614726565b5b614cf88482856147d7565b509392505050565b600082601f830112614d1557614d14614721565b5b8135614d25848260208601614cbe565b91505092915050565b60008060008060808587031215614d4857614d4761444c565b5b6000614d56878288016146cc565b9450506020614d67878288016146cc565b9350506040614d7887828801614532565b925050606085013567ffffffffffffffff811115614d9957614d98614451565b5b614da587828801614d00565b91505092959194509250565b600081519050919050565b600082825260208201905092915050565b6000819050602082019050919050565b6000614de983836149e2565b60208301905092915050565b6000602082019050919050565b6000614e0d82614db1565b614e178185614dbc565b9350614e2283614dcd565b8060005b83811015614e53578151614e3a8882614ddd565b9750614e4583614df5565b925050600181019050614e26565b5085935050505092915050565b60006020820190508181036000830152614e7a8184614e02565b905092915050565b60008060408385031215614e9957614e9861444c565b5b6000614ea785828601614532565b925050602083013567ffffffffffffffff811115614ec857614ec7614451565b5b614ed485828601614828565b9150509250929050565b60008060408385031215614ef557614ef461444c565b5b6000614f0385828601614532565b9250506020614f14858286016146cc565b9150509250929050565b7f4e487b7100000000000000000000000000000000000000000000000000000000600052602260045260246000fd5b60006002820490506001821680614f6557607f821691505b60208210811415614f7957614f78614f1e565b5b50919050565b7f4552433732313a20617070726f76616c20746f2063757272656e74206f776e6560008201527f7200000000000000000000000000000000000000000000000000000000000000602082015250565b6000614fdb6021836145a9565b9150614fe682614f7f565b604082019050919050565b6000602082019050818103600083015261500a81614fce565b9050919050565b7f4552433732313a20617070726f76652063616c6c6572206973206e6f7420746f60008201527f6b656e206f776e6572206f7220617070726f76656420666f7220616c6c000000602082015250565b600061506d603d836145a9565b915061507882615011565b604082019050919050565b6000602082019050818103600083015261509c81615060565b9050919050565b7f4e487b7100000000000000000000000000000000000000000000000000000000600052601160045260246000fd5b60006150dd82614511565b91507fffffffffffffffffffffffffffffffffffffffffffffffffffffffffffffffff8214156151105761510f6150a3565b5b600182019050919050565b6000819050919050565b6000819050919050565b600061514a6151456151408461511b565b615125565b614511565b9050919050565b61515a8161512f565b82525050565b600060a0820190506151756000830188614574565b818103602083015261518781876145fe565b90506151966040830186615151565b6151a36060830185614931565b6151b060808301846144e7565b9695505050505050565b7f4552433732313a2063616c6c6572206973206e6f7420746f6b656e206f776e6560008201527f72206f7220617070726f76656400000000000000000000000000000000000000602082015250565b6000615216602d836145a9565b9150615221826151ba565b604082019050919050565b6000602082019050818103600083015261524581615209565b9050919050565b600061525782614511565b915061526283614511565b9250827fffffffffffffffffffffffffffffffffffffffffffffffffffffffffffffffff03821115615297576152966150a3565b5b828201905092915050565b7f4e487b7100000000000000000000000000000000000000000000000000000000600052603260045260246000fd5b7f4552433732313a20696e76616c696420746f6b656e2049440000000000000000600082015250565b60006153076018836145a9565b9150615312826152d1565b602082019050919050565b60006020820190508181036000830152615336816152fa565b9050919050565b7f6d757374206f776e206e667420746f207365742070726f66696c650000000000600082015250565b6000615373601b836145a9565b915061537e8261533d565b602082019050919050565b600060208201905081810360008301526153a281615366565b9050919050565b7f4552433732313a2061646472657373207a65726f206973206e6f74206120766160008201527f6c6964206f776e65720000000000000000000000000000000000000000000000602082015250565b60006154056029836145a9565b9150615410826153a9565b604082019050919050565b60006020820190508181036000830152615434816153f8565b9050919050565b600061544682614511565b915061545183614511565b9250817fffffffffffffffffffffffffffffffffffffffffffffffffffffffffffffffff048311821515161561548a576154896150a3565b5b828202905092915050565b600081905092915050565b50565b60006154b0600083615495565b91506154bb826154a0565b600082019050919050565b60006154d1826154a3565b9150819050919050565b6000819050919050565b60006155006154fb6154f6846154db565b615125565b614511565b9050919050565b615510816154e5565b82525050565b600060408201905061552b600083018561468b565b6155386020830184615507565b9392505050565b600081905092915050565b60006155558261459e565b61555f818561553f565b935061556f8185602086016145ba565b80840191505092915050565b6000615587828561554a565b9150615593828461554a565b91508190509392505050565b60006080820190506155b46000830187614574565b81810360208301526155c681866145fe565b90506155d56040830185614574565b6155e26060830184614931565b95945050505050565b7f4e487b7100000000000000000000000000000000000000000000000000000000600052601260045260246000fd5b600061562582614511565b915061563083614511565b9250826156405761563f6155eb565b5b828204905092915050565b7f4552433732313a207472616e736665722066726f6d20696e636f72726563742060008201527f6f776e6572000000000000000000000000000000000000000000000000000000602082015250565b60006156a76025836145a9565b91506156b28261564b565b604082019050919050565b600060208201905081810360008301526156d68161569a565b9050919050565b7f4552433732313a207472616e7366657220746f20746865207a65726f2061646460008201527f7265737300000000000000000000000000000000000000000000000000000000602082015250565b60006157396024836145a9565b9150615744826156dd565b604082019050919050565b600060208201905081810360008301526157688161572c565b9050919050565b7f45524337323155524953746f726167653a2055524920736574206f66206e6f6e60008201527f6578697374656e7420746f6b656e000000000000000000000000000000000000602082015250565b60006157cb602e836145a9565b91506157d68261576f565b604082019050919050565b600060208201905081810360008301526157fa816157be565b9050919050565b7f4552433732313a20617070726f766520746f2063616c6c657200000000000000600082015250565b60006158376019836145a9565b915061584282615801565b602082019050919050565b600060208201905081810360008301526158668161582a565b9050919050565b7f4552433732313a207472616e7366657220746f206e6f6e20455243373231526560008201527f63656976657220696d706c656d656e7465720000000000000000000000000000602082015250565b60006158c96032836145a9565b91506158d48261586d565b604082019050919050565b600060208201905081810360008301526158f8816158bc565b9050919050565b600069ffffffffffffffffffff82169050919050565b61591e816158ff565b811461592957600080fd5b50565b60008151905061593b81615915565b92915050565b6000819050919050565b61595481615941565b811461595f57600080fd5b50565b6000815190506159718161594b565b92915050565b6000815190506159868161451b565b92915050565b600080600080600060a086880312156159a8576159a761444c565b5b60006159b68882890161592c565b95505060206159c788828901615962565b94505060406159d888828901615977565b93505060606159e988828901615977565b92505060806159fa8882890161592c565b9150509295509295909350565b6000615a1282615941565b9150615a1d83615941565b9250827f7fffffffffffffffffffffffffffffffffffffffffffffffffffffffffffffff0482116000841360008413161615615a5c57615a5b6150a3565b5b817f80000000000000000000000000000000000000000000000000000000000000000583126000841260008413161615615a9957615a986150a3565b5b827f80000000000000000000000000000000000000000000000000000000000000000582126000841360008412161615615ad657615ad56150a3565b5b827f7fffffffffffffffffffffffffffffffffffffffffffffffffffffffffffffff0582126000841260008412161615615b1357615b126150a3565b5b828202905092915050565b6000615b2982614511565b9150615b3483614511565b925082821015615b4757615b466150a3565b5b828203905092915050565b600081519050919050565b600082825260208201905092915050565b6000615b7982615b52565b615b838185615b5d565b9350615b938185602086016145ba565b615b9c816145ed565b840191505092915050565b6000608082019050615bbc600083018761468b565b615bc9602083018661468b565b615bd66040830185614574565b8181036060830152615be88184615b6e565b905095945050505050565b600081519050615c0281614482565b92915050565b600060208284031215615c1e57615c1d61444c565b5b6000615c2c84828501615bf3565b91505092915050565b7f4552433732313a206d696e7420746f20746865207a65726f2061646472657373600082015250565b6000615c6b6020836145a9565b9150615c7682615c35565b602082019050919050565b60006020820190508181036000830152615c9a81615c5e565b9050919050565b7f4552433732313a20746f6b656e20616c7265616479206d696e74656400000000600082015250565b6000615cd7601c836145a9565b9150615ce282615ca1565b602082019050919050565b60006020820190508181036000830152615d0681615cca565b905091905056fea26469706673582212202977fe3fec7fe54630edc11ad9db4dd1fb69b322221f9f6945cd8d83c14e444164736f6c63430008090033",
  "linkReferences": {},
  "deployedLinkReferences": {}
}